{
	"SimpleStorage.sol": {
		"SimpleStorage": {
			"abi": [
				{
					"inputs": [
						{
							"internalType": "string",
							"name": "_name",
							"type": "string"
						},
						{
							"internalType": "uint32",
							"name": "_favoNumber",
							"type": "uint32"
						}
					],
					"name": "AddPeople",
					"outputs": [],
					"stateMutability": "nonpayable",
					"type": "function"
				},
				{
					"inputs": [
						{
							"internalType": "string",
							"name": "",
							"type": "string"
						}
					],
					"name": "findNumber",
					"outputs": [
						{
							"internalType": "uint32",
							"name": "",
							"type": "uint32"
						}
					],
					"stateMutability": "view",
					"type": "function"
				},
				{
					"inputs": [
						{
							"internalType": "uint256",
							"name": "",
							"type": "uint256"
						}
					],
					"name": "listOfPeople",
					"outputs": [
						{
							"internalType": "string",
							"name": "name",
							"type": "string"
						},
						{
							"internalType": "uint32",
							"name": "favoNumber",
							"type": "uint32"
						}
					],
					"stateMutability": "view",
					"type": "function"
				},
				{
					"inputs": [
						{
							"internalType": "uint32",
							"name": "_grinta",
							"type": "uint32"
						}
					],
					"name": "store",
					"outputs": [],
					"stateMutability": "nonpayable",
					"type": "function"
				},
				{
					"inputs": [],
					"name": "watch",
					"outputs": [
						{
							"internalType": "uint32",
							"name": "",
							"type": "uint32"
						}
					],
					"stateMutability": "view",
					"type": "function"
				}
			],
			"devdoc": {
				"kind": "dev",
				"methods": {},
				"version": 1
			},
			"evm": {
				"assembly": "    /* \"SimpleStorage.sol\":90:865  contract SimpleStorage {... */\n  mstore(0x40, 0x80)\n  callvalue\n  dup1\n  iszero\n  tag_1\n  jumpi\n  0x00\n  dup1\n  revert\ntag_1:\n  pop\n  dataSize(sub_0)\n  dup1\n  dataOffset(sub_0)\n  0x00\n  codecopy\n  0x00\n  return\nstop\n\nsub_0: assembly {\n        /* \"SimpleStorage.sol\":90:865  contract SimpleStorage {... */\n      mstore(0x40, 0x80)\n      callvalue\n      dup1\n      iszero\n      tag_1\n      jumpi\n      0x00\n      dup1\n      revert\n    tag_1:\n      pop\n      jumpi(tag_2, lt(calldatasize, 0x04))\n      shr(0xe0, calldataload(0x00))\n      dup1\n      0x0abc3fa9\n      eq\n      tag_3\n      jumpi\n      dup1\n      0x2ebce631\n      eq\n      tag_4\n      jumpi\n      dup1\n      0x3489d874\n      eq\n      tag_5\n      jumpi\n      dup1\n      0x742d8823\n      eq\n      tag_6\n      jumpi\n      dup1\n      0xb9e95382\n      eq\n      tag_7\n      jumpi\n    tag_2:\n      0x00\n      dup1\n      revert\n        /* \"SimpleStorage.sol\":394:437  mapping(string => uint32) public findNumber */\n    tag_3:\n      tag_8\n      0x04\n      dup1\n      calldatasize\n      sub\n      dup2\n      add\n      swap1\n      tag_9\n      swap2\n      swap1\n      tag_10\n      jump\t// in\n    tag_9:\n      tag_11\n      jump\t// in\n    tag_8:\n      mload(0x40)\n      tag_12\n      swap2\n      swap1\n      tag_13\n      jump\t// in\n    tag_12:\n      mload(0x40)\n      dup1\n      swap2\n      sub\n      swap1\n      return\n        /* \"SimpleStorage.sol\":276:304  Person[] public listOfPeople */\n    tag_4:\n      tag_14\n      0x04\n      dup1\n      calldatasize\n      sub\n      dup2\n      add\n      swap1\n      tag_15\n      swap2\n      swap1\n      tag_16\n      jump\t// in\n    tag_15:\n      tag_17\n      jump\t// in\n    tag_14:\n      mload(0x40)\n      tag_18\n      swap3\n      swap2\n      swap1\n      tag_19\n      jump\t// in\n    tag_18:\n      mload(0x40)\n      dup1\n      swap2\n      sub\n      swap1\n      return\n        /* \"SimpleStorage.sol\":785:861  function watch () public view returns(uint32) {... */\n    tag_5:\n      tag_20\n      tag_21\n      jump\t// in\n    tag_20:\n      mload(0x40)\n      tag_22\n      swap2\n      swap1\n      tag_13\n      jump\t// in\n    tag_22:\n      mload(0x40)\n      dup1\n      swap2\n      sub\n      swap1\n      return\n        /* \"SimpleStorage.sol\":530:702  function AddPeople (string memory _name ,uint32 _favoNumber) public {... */\n    tag_6:\n      tag_23\n      0x04\n      dup1\n      calldatasize\n      sub\n      dup2\n      add\n      swap1\n      tag_24\n      swap2\n      swap1\n      tag_25\n      jump\t// in\n    tag_24:\n      tag_26\n      jump\t// in\n    tag_23:\n      stop\n        /* \"SimpleStorage.sol\":708:780  function store (uint32 _grinta) public {... */\n    tag_7:\n      tag_27\n      0x04\n      dup1\n      calldatasize\n      sub\n      dup2\n      add\n      swap1\n      tag_28\n      swap2\n      swap1\n      tag_29\n      jump\t// in\n    tag_28:\n      tag_30\n      jump\t// in\n    tag_27:\n      stop\n        /* \"SimpleStorage.sol\":394:437  mapping(string => uint32) public findNumber */\n    tag_11:\n      0x02\n      dup2\n      dup1\n      mload\n      0x20\n      dup2\n      add\n      dup3\n      add\n      dup1\n      mload\n      dup5\n      dup3\n      mstore\n      0x20\n      dup4\n      add\n      0x20\n      dup6\n      add\n      keccak256\n      dup2\n      dup4\n      mstore\n      dup1\n      swap6\n      pop\n      pop\n      pop\n      pop\n      pop\n      pop\n      0x00\n      swap2\n      pop\n      sload\n      swap1\n      0x0100\n      exp\n      swap1\n      div\n      0xffffffff\n      and\n      dup2\n      jump\t// out\n        /* \"SimpleStorage.sol\":276:304  Person[] public listOfPeople */\n    tag_17:\n      0x01\n      dup2\n      dup2\n      sload\n      dup2\n      lt\n      tag_31\n      jumpi\n      0x00\n      dup1\n      revert\n    tag_31:\n      swap1\n      0x00\n      mstore\n      keccak256(0x00, 0x20)\n      swap1\n      0x02\n      mul\n      add\n      0x00\n      swap2\n      pop\n      swap1\n      pop\n      dup1\n      0x00\n      add\n      dup1\n      sload\n      tag_33\n      swap1\n      tag_34\n      jump\t// in\n    tag_33:\n      dup1\n      0x1f\n      add\n      0x20\n      dup1\n      swap2\n      div\n      mul\n      0x20\n      add\n      mload(0x40)\n      swap1\n      dup2\n      add\n      0x40\n      mstore\n      dup1\n      swap3\n      swap2\n      swap1\n      dup2\n      dup2\n      mstore\n      0x20\n      add\n      dup3\n      dup1\n      sload\n      tag_35\n      swap1\n      tag_34\n      jump\t// in\n    tag_35:\n      dup1\n      iszero\n      tag_36\n      jumpi\n      dup1\n      0x1f\n      lt\n      tag_37\n      jumpi\n      0x0100\n      dup1\n      dup4\n      sload\n      div\n      mul\n      dup4\n      mstore\n      swap2\n      0x20\n      add\n      swap2\n      jump(tag_36)\n    tag_37:\n      dup3\n      add\n      swap2\n      swap1\n      0x00\n      mstore\n      keccak256(0x00, 0x20)\n      swap1\n    tag_38:\n      dup2\n      sload\n      dup2\n      mstore\n      swap1\n      0x01\n      add\n      swap1\n      0x20\n      add\n      dup1\n      dup4\n      gt\n      tag_38\n      jumpi\n      dup3\n      swap1\n      sub\n      0x1f\n      and\n      dup3\n      add\n      swap2\n    tag_36:\n      pop\n      pop\n      pop\n      pop\n      pop\n      swap1\n      dup1\n      0x01\n      add\n      0x00\n      swap1\n      sload\n      swap1\n      0x0100\n      exp\n      swap1\n      div\n      0xffffffff\n      and\n      swap1\n      pop\n      dup3\n      jump\t// out\n        /* \"SimpleStorage.sol\":785:861  function watch () public view returns(uint32) {... */\n    tag_21:\n        /* \"SimpleStorage.sol\":823:829  uint32 */\n      0x00\n        /* \"SimpleStorage.sol\":848:854  grinta */\n      dup1\n      0x04\n      swap1\n      sload\n      swap1\n      0x0100\n      exp\n      swap1\n      div\n      0xffffffff\n      and\n        /* \"SimpleStorage.sol\":841:854  return grinta */\n      swap1\n      pop\n        /* \"SimpleStorage.sol\":785:861  function watch () public view returns(uint32) {... */\n      swap1\n      jump\t// out\n        /* \"SimpleStorage.sol\":530:702  function AddPeople (string memory _name ,uint32 _favoNumber) public {... */\n    tag_26:\n        /* \"SimpleStorage.sol\":608:620  listOfPeople */\n      0x01\n        /* \"SimpleStorage.sol\":627:653  Person(_name, _favoNumber) */\n      mload(0x40)\n      dup1\n      0x40\n      add\n      0x40\n      mstore\n      dup1\n        /* \"SimpleStorage.sol\":634:639  _name */\n      dup5\n        /* \"SimpleStorage.sol\":627:653  Person(_name, _favoNumber) */\n      dup2\n      mstore\n      0x20\n      add\n        /* \"SimpleStorage.sol\":641:652  _favoNumber */\n      dup4\n        /* \"SimpleStorage.sol\":627:653  Person(_name, _favoNumber) */\n      0xffffffff\n      and\n      dup2\n      mstore\n      pop\n        /* \"SimpleStorage.sol\":608:654  listOfPeople.push( Person(_name, _favoNumber)) */\n      swap1\n      dup1\n      0x01\n      dup2\n      sload\n      add\n      dup1\n      dup3\n      sstore\n      dup1\n      swap2\n      pop\n      pop\n      0x01\n      swap1\n      sub\n      swap1\n      0x00\n      mstore\n      keccak256(0x00, 0x20)\n      swap1\n      0x02\n      mul\n      add\n      0x00\n      swap1\n      swap2\n      swap1\n      swap2\n      swap1\n      swap2\n      pop\n      0x00\n      dup3\n      add\n      mload\n      dup2\n      0x00\n      add\n      swap1\n      dup2\n      tag_42\n      swap2\n      swap1\n      tag_43\n      jump\t// in\n    tag_42:\n      pop\n      0x20\n      dup3\n      add\n      mload\n      dup2\n      0x01\n      add\n      exp(0x0100, 0x00)\n      dup2\n      sload\n      dup2\n      0xffffffff\n      mul\n      not\n      and\n      swap1\n      dup4\n      0xffffffff\n      and\n      mul\n      or\n      swap1\n      sstore\n      pop\n      pop\n      pop\n        /* \"SimpleStorage.sol\":684:695  _favoNumber */\n      dup1\n        /* \"SimpleStorage.sol\":664:674  findNumber */\n      0x02\n        /* \"SimpleStorage.sol\":675:680  _name */\n      dup4\n        /* \"SimpleStorage.sol\":664:681  findNumber[_name] */\n      mload(0x40)\n      tag_44\n      swap2\n      swap1\n      tag_45\n      jump\t// in\n    tag_44:\n      swap1\n      dup2\n      mstore\n      0x20\n      add\n      mload(0x40)\n      dup1\n      swap2\n      sub\n      swap1\n      keccak256\n      0x00\n        /* \"SimpleStorage.sol\":664:695  findNumber[_name] = _favoNumber */\n      0x0100\n      exp\n      dup2\n      sload\n      dup2\n      0xffffffff\n      mul\n      not\n      and\n      swap1\n      dup4\n      0xffffffff\n      and\n      mul\n      or\n      swap1\n      sstore\n      pop\n        /* \"SimpleStorage.sol\":530:702  function AddPeople (string memory _name ,uint32 _favoNumber) public {... */\n      pop\n      pop\n      jump\t// out\n        /* \"SimpleStorage.sol\":708:780  function store (uint32 _grinta) public {... */\n    tag_30:\n        /* \"SimpleStorage.sol\":766:773  _grinta */\n      dup1\n        /* \"SimpleStorage.sol\":757:763  grinta */\n      0x00\n      0x04\n        /* \"SimpleStorage.sol\":757:773  grinta = _grinta */\n      0x0100\n      exp\n      dup2\n      sload\n      dup2\n      0xffffffff\n      mul\n      not\n      and\n      swap1\n      dup4\n      0xffffffff\n      and\n      mul\n      or\n      swap1\n      sstore\n      pop\n        /* \"SimpleStorage.sol\":708:780  function store (uint32 _grinta) public {... */\n      pop\n      jump\t// out\n        /* \"#utility.yul\":7:82   */\n    tag_47:\n        /* \"#utility.yul\":40:46   */\n      0x00\n        /* \"#utility.yul\":73:75   */\n      0x40\n        /* \"#utility.yul\":67:76   */\n      mload\n        /* \"#utility.yul\":57:76   */\n      swap1\n      pop\n        /* \"#utility.yul\":7:82   */\n      swap1\n      jump\t// out\n        /* \"#utility.yul\":88:205   */\n    tag_48:\n        /* \"#utility.yul\":197:198   */\n      0x00\n        /* \"#utility.yul\":194:195   */\n      dup1\n        /* \"#utility.yul\":187:199   */\n      revert\n        /* \"#utility.yul\":211:328   */\n    tag_49:\n        /* \"#utility.yul\":320:321   */\n      0x00\n        /* \"#utility.yul\":317:318   */\n      dup1\n        /* \"#utility.yul\":310:322   */\n      revert\n        /* \"#utility.yul\":334:451   */\n    tag_50:\n        /* \"#utility.yul\":443:444   */\n      0x00\n        /* \"#utility.yul\":440:441   */\n      dup1\n        /* \"#utility.yul\":433:445   */\n      revert\n        /* \"#utility.yul\":457:574   */\n    tag_51:\n        /* \"#utility.yul\":566:567   */\n      0x00\n        /* \"#utility.yul\":563:564   */\n      dup1\n        /* \"#utility.yul\":556:568   */\n      revert\n        /* \"#utility.yul\":580:682   */\n    tag_52:\n        /* \"#utility.yul\":621:627   */\n      0x00\n        /* \"#utility.yul\":672:674   */\n      0x1f\n        /* \"#utility.yul\":668:675   */\n      not\n        /* \"#utility.yul\":663:665   */\n      0x1f\n        /* \"#utility.yul\":656:661   */\n      dup4\n        /* \"#utility.yul\":652:666   */\n      add\n        /* \"#utility.yul\":648:676   */\n      and\n        /* \"#utility.yul\":638:676   */\n      swap1\n      pop\n        /* \"#utility.yul\":580:682   */\n      swap2\n      swap1\n      pop\n      jump\t// out\n        /* \"#utility.yul\":688:868   */\n    tag_53:\n        /* \"#utility.yul\":736:813   */\n      0x4e487b7100000000000000000000000000000000000000000000000000000000\n        /* \"#utility.yul\":733:734   */\n      0x00\n        /* \"#utility.yul\":726:814   */\n      mstore\n        /* \"#utility.yul\":833:837   */\n      0x41\n        /* \"#utility.yul\":830:831   */\n      0x04\n        /* \"#utility.yul\":823:838   */\n      mstore\n        /* \"#utility.yul\":857:861   */\n      0x24\n        /* \"#utility.yul\":854:855   */\n      0x00\n        /* \"#utility.yul\":847:862   */\n      revert\n        /* \"#utility.yul\":874:1155   */\n    tag_54:\n        /* \"#utility.yul\":957:984   */\n      tag_98\n        /* \"#utility.yul\":979:983   */\n      dup3\n        /* \"#utility.yul\":957:984   */\n      tag_52\n      jump\t// in\n    tag_98:\n        /* \"#utility.yul\":949:955   */\n      dup2\n        /* \"#utility.yul\":945:985   */\n      add\n        /* \"#utility.yul\":1087:1093   */\n      dup2\n        /* \"#utility.yul\":1075:1085   */\n      dup2\n        /* \"#utility.yul\":1072:1094   */\n      lt\n        /* \"#utility.yul\":1051:1069   */\n      0xffffffffffffffff\n        /* \"#utility.yul\":1039:1049   */\n      dup3\n        /* \"#utility.yul\":1036:1070   */\n      gt\n        /* \"#utility.yul\":1033:1095   */\n      or\n        /* \"#utility.yul\":1030:1118   */\n      iszero\n      tag_99\n      jumpi\n        /* \"#utility.yul\":1098:1116   */\n      tag_100\n      tag_53\n      jump\t// in\n    tag_100:\n        /* \"#utility.yul\":1030:1118   */\n    tag_99:\n        /* \"#utility.yul\":1138:1148   */\n      dup1\n        /* \"#utility.yul\":1134:1136   */\n      0x40\n        /* \"#utility.yul\":1127:1149   */\n      mstore\n        /* \"#utility.yul\":917:1155   */\n      pop\n        /* \"#utility.yul\":874:1155   */\n      pop\n      pop\n      jump\t// out\n        /* \"#utility.yul\":1161:1290   */\n    tag_55:\n        /* \"#utility.yul\":1195:1201   */\n      0x00\n        /* \"#utility.yul\":1222:1242   */\n      tag_102\n      tag_47\n      jump\t// in\n    tag_102:\n        /* \"#utility.yul\":1212:1242   */\n      swap1\n      pop\n        /* \"#utility.yul\":1251:1284   */\n      tag_103\n        /* \"#utility.yul\":1279:1283   */\n      dup3\n        /* \"#utility.yul\":1271:1277   */\n      dup3\n        /* \"#utility.yul\":1251:1284   */\n      tag_54\n      jump\t// in\n    tag_103:\n        /* \"#utility.yul\":1161:1290   */\n      swap2\n      swap1\n      pop\n      jump\t// out\n        /* \"#utility.yul\":1296:1604   */\n    tag_56:\n        /* \"#utility.yul\":1358:1362   */\n      0x00\n        /* \"#utility.yul\":1448:1466   */\n      0xffffffffffffffff\n        /* \"#utility.yul\":1440:1446   */\n      dup3\n        /* \"#utility.yul\":1437:1467   */\n      gt\n        /* \"#utility.yul\":1434:1490   */\n      iszero\n      tag_105\n      jumpi\n        /* \"#utility.yul\":1470:1488   */\n      tag_106\n      tag_53\n      jump\t// in\n    tag_106:\n        /* \"#utility.yul\":1434:1490   */\n    tag_105:\n        /* \"#utility.yul\":1508:1537   */\n      tag_107\n        /* \"#utility.yul\":1530:1536   */\n      dup3\n        /* \"#utility.yul\":1508:1537   */\n      tag_52\n      jump\t// in\n    tag_107:\n        /* \"#utility.yul\":1500:1537   */\n      swap1\n      pop\n        /* \"#utility.yul\":1592:1596   */\n      0x20\n        /* \"#utility.yul\":1586:1590   */\n      dup2\n        /* \"#utility.yul\":1582:1597   */\n      add\n        /* \"#utility.yul\":1574:1597   */\n      swap1\n      pop\n        /* \"#utility.yul\":1296:1604   */\n      swap2\n      swap1\n      pop\n      jump\t// out\n        /* \"#utility.yul\":1610:1756   */\n    tag_57:\n        /* \"#utility.yul\":1707:1713   */\n      dup3\n        /* \"#utility.yul\":1702:1705   */\n      dup2\n        /* \"#utility.yul\":1697:1700   */\n      dup4\n        /* \"#utility.yul\":1684:1714   */\n      calldatacopy\n        /* \"#utility.yul\":1748:1749   */\n      0x00\n        /* \"#utility.yul\":1739:1745   */\n      dup4\n        /* \"#utility.yul\":1734:1737   */\n      dup4\n        /* \"#utility.yul\":1730:1746   */\n      add\n        /* \"#utility.yul\":1723:1750   */\n      mstore\n        /* \"#utility.yul\":1610:1756   */\n      pop\n      pop\n      pop\n      jump\t// out\n        /* \"#utility.yul\":1762:2187   */\n    tag_58:\n        /* \"#utility.yul\":1840:1845   */\n      0x00\n        /* \"#utility.yul\":1865:1931   */\n      tag_110\n        /* \"#utility.yul\":1881:1930   */\n      tag_111\n        /* \"#utility.yul\":1923:1929   */\n      dup5\n        /* \"#utility.yul\":1881:1930   */\n      tag_56\n      jump\t// in\n    tag_111:\n        /* \"#utility.yul\":1865:1931   */\n      tag_55\n      jump\t// in\n    tag_110:\n        /* \"#utility.yul\":1856:1931   */\n      swap1\n      pop\n        /* \"#utility.yul\":1954:1960   */\n      dup3\n        /* \"#utility.yul\":1947:1952   */\n      dup2\n        /* \"#utility.yul\":1940:1961   */\n      mstore\n        /* \"#utility.yul\":1992:1996   */\n      0x20\n        /* \"#utility.yul\":1985:1990   */\n      dup2\n        /* \"#utility.yul\":1981:1997   */\n      add\n        /* \"#utility.yul\":2030:2033   */\n      dup5\n        /* \"#utility.yul\":2021:2027   */\n      dup5\n        /* \"#utility.yul\":2016:2019   */\n      dup5\n        /* \"#utility.yul\":2012:2028   */\n      add\n        /* \"#utility.yul\":2009:2034   */\n      gt\n        /* \"#utility.yul\":2006:2118   */\n      iszero\n      tag_112\n      jumpi\n        /* \"#utility.yul\":2037:2116   */\n      tag_113\n      tag_51\n      jump\t// in\n    tag_113:\n        /* \"#utility.yul\":2006:2118   */\n    tag_112:\n        /* \"#utility.yul\":2127:2181   */\n      tag_114\n        /* \"#utility.yul\":2174:2180   */\n      dup5\n        /* \"#utility.yul\":2169:2172   */\n      dup3\n        /* \"#utility.yul\":2164:2167   */\n      dup6\n        /* \"#utility.yul\":2127:2181   */\n      tag_57\n      jump\t// in\n    tag_114:\n        /* \"#utility.yul\":1846:2187   */\n      pop\n        /* \"#utility.yul\":1762:2187   */\n      swap4\n      swap3\n      pop\n      pop\n      pop\n      jump\t// out\n        /* \"#utility.yul\":2207:2547   */\n    tag_59:\n        /* \"#utility.yul\":2263:2268   */\n      0x00\n        /* \"#utility.yul\":2312:2315   */\n      dup3\n        /* \"#utility.yul\":2305:2309   */\n      0x1f\n        /* \"#utility.yul\":2297:2303   */\n      dup4\n        /* \"#utility.yul\":2293:2310   */\n      add\n        /* \"#utility.yul\":2289:2316   */\n      slt\n        /* \"#utility.yul\":2279:2401   */\n      tag_116\n      jumpi\n        /* \"#utility.yul\":2320:2399   */\n      tag_117\n      tag_50\n      jump\t// in\n    tag_117:\n        /* \"#utility.yul\":2279:2401   */\n    tag_116:\n        /* \"#utility.yul\":2437:2443   */\n      dup2\n        /* \"#utility.yul\":2424:2444   */\n      calldataload\n        /* \"#utility.yul\":2462:2541   */\n      tag_118\n        /* \"#utility.yul\":2537:2540   */\n      dup5\n        /* \"#utility.yul\":2529:2535   */\n      dup3\n        /* \"#utility.yul\":2522:2526   */\n      0x20\n        /* \"#utility.yul\":2514:2520   */\n      dup7\n        /* \"#utility.yul\":2510:2527   */\n      add\n        /* \"#utility.yul\":2462:2541   */\n      tag_58\n      jump\t// in\n    tag_118:\n        /* \"#utility.yul\":2453:2541   */\n      swap2\n      pop\n        /* \"#utility.yul\":2269:2547   */\n      pop\n        /* \"#utility.yul\":2207:2547   */\n      swap3\n      swap2\n      pop\n      pop\n      jump\t// out\n        /* \"#utility.yul\":2553:3062   */\n    tag_10:\n        /* \"#utility.yul\":2622:2628   */\n      0x00\n        /* \"#utility.yul\":2671:2673   */\n      0x20\n        /* \"#utility.yul\":2659:2668   */\n      dup3\n        /* \"#utility.yul\":2650:2657   */\n      dup5\n        /* \"#utility.yul\":2646:2669   */\n      sub\n        /* \"#utility.yul\":2642:2674   */\n      slt\n        /* \"#utility.yul\":2639:2758   */\n      iszero\n      tag_120\n      jumpi\n        /* \"#utility.yul\":2677:2756   */\n      tag_121\n      tag_48\n      jump\t// in\n    tag_121:\n        /* \"#utility.yul\":2639:2758   */\n    tag_120:\n        /* \"#utility.yul\":2825:2826   */\n      0x00\n        /* \"#utility.yul\":2814:2823   */\n      dup3\n        /* \"#utility.yul\":2810:2827   */\n      add\n        /* \"#utility.yul\":2797:2828   */\n      calldataload\n        /* \"#utility.yul\":2855:2873   */\n      0xffffffffffffffff\n        /* \"#utility.yul\":2847:2853   */\n      dup2\n        /* \"#utility.yul\":2844:2874   */\n      gt\n        /* \"#utility.yul\":2841:2958   */\n      iszero\n      tag_122\n      jumpi\n        /* \"#utility.yul\":2877:2956   */\n      tag_123\n      tag_49\n      jump\t// in\n    tag_123:\n        /* \"#utility.yul\":2841:2958   */\n    tag_122:\n        /* \"#utility.yul\":2982:3045   */\n      tag_124\n        /* \"#utility.yul\":3037:3044   */\n      dup5\n        /* \"#utility.yul\":3028:3034   */\n      dup3\n        /* \"#utility.yul\":3017:3026   */\n      dup6\n        /* \"#utility.yul\":3013:3035   */\n      add\n        /* \"#utility.yul\":2982:3045   */\n      tag_59\n      jump\t// in\n    tag_124:\n        /* \"#utility.yul\":2972:3045   */\n      swap2\n      pop\n        /* \"#utility.yul\":2768:3055   */\n      pop\n        /* \"#utility.yul\":2553:3062   */\n      swap3\n      swap2\n      pop\n      pop\n      jump\t// out\n        /* \"#utility.yul\":3068:3161   */\n    tag_60:\n        /* \"#utility.yul\":3104:3111   */\n      0x00\n        /* \"#utility.yul\":3144:3154   */\n      0xffffffff\n        /* \"#utility.yul\":3137:3142   */\n      dup3\n        /* \"#utility.yul\":3133:3155   */\n      and\n        /* \"#utility.yul\":3122:3155   */\n      swap1\n      pop\n        /* \"#utility.yul\":3068:3161   */\n      swap2\n      swap1\n      pop\n      jump\t// out\n        /* \"#utility.yul\":3167:3282   */\n    tag_61:\n        /* \"#utility.yul\":3252:3275   */\n      tag_127\n        /* \"#utility.yul\":3269:3274   */\n      dup2\n        /* \"#utility.yul\":3252:3275   */\n      tag_60\n      jump\t// in\n    tag_127:\n        /* \"#utility.yul\":3247:3250   */\n      dup3\n        /* \"#utility.yul\":3240:3276   */\n      mstore\n        /* \"#utility.yul\":3167:3282   */\n      pop\n      pop\n      jump\t// out\n        /* \"#utility.yul\":3288:3506   */\n    tag_13:\n        /* \"#utility.yul\":3379:3383   */\n      0x00\n        /* \"#utility.yul\":3417:3419   */\n      0x20\n        /* \"#utility.yul\":3406:3415   */\n      dup3\n        /* \"#utility.yul\":3402:3420   */\n      add\n        /* \"#utility.yul\":3394:3420   */\n      swap1\n      pop\n        /* \"#utility.yul\":3430:3499   */\n      tag_129\n        /* \"#utility.yul\":3496:3497   */\n      0x00\n        /* \"#utility.yul\":3485:3494   */\n      dup4\n        /* \"#utility.yul\":3481:3498   */\n      add\n        /* \"#utility.yul\":3472:3478   */\n      dup5\n        /* \"#utility.yul\":3430:3499   */\n      tag_61\n      jump\t// in\n    tag_129:\n        /* \"#utility.yul\":3288:3506   */\n      swap3\n      swap2\n      pop\n      pop\n      jump\t// out\n        /* \"#utility.yul\":3512:3589   */\n    tag_62:\n        /* \"#utility.yul\":3549:3556   */\n      0x00\n        /* \"#utility.yul\":3578:3583   */\n      dup2\n        /* \"#utility.yul\":3567:3583   */\n      swap1\n      pop\n        /* \"#utility.yul\":3512:3589   */\n      swap2\n      swap1\n      pop\n      jump\t// out\n        /* \"#utility.yul\":3595:3717   */\n    tag_63:\n        /* \"#utility.yul\":3668:3692   */\n      tag_132\n        /* \"#utility.yul\":3686:3691   */\n      dup2\n        /* \"#utility.yul\":3668:3692   */\n      tag_62\n      jump\t// in\n    tag_132:\n        /* \"#utility.yul\":3661:3666   */\n      dup2\n        /* \"#utility.yul\":3658:3693   */\n      eq\n        /* \"#utility.yul\":3648:3711   */\n      tag_133\n      jumpi\n        /* \"#utility.yul\":3707:3708   */\n      0x00\n        /* \"#utility.yul\":3704:3705   */\n      dup1\n        /* \"#utility.yul\":3697:3709   */\n      revert\n        /* \"#utility.yul\":3648:3711   */\n    tag_133:\n        /* \"#utility.yul\":3595:3717   */\n      pop\n      jump\t// out\n        /* \"#utility.yul\":3723:3862   */\n    tag_64:\n        /* \"#utility.yul\":3769:3774   */\n      0x00\n        /* \"#utility.yul\":3807:3813   */\n      dup2\n        /* \"#utility.yul\":3794:3814   */\n      calldataload\n        /* \"#utility.yul\":3785:3814   */\n      swap1\n      pop\n        /* \"#utility.yul\":3823:3856   */\n      tag_135\n        /* \"#utility.yul\":3850:3855   */\n      dup2\n        /* \"#utility.yul\":3823:3856   */\n      tag_63\n      jump\t// in\n    tag_135:\n        /* \"#utility.yul\":3723:3862   */\n      swap3\n      swap2\n      pop\n      pop\n      jump\t// out\n        /* \"#utility.yul\":3868:4197   */\n    tag_16:\n        /* \"#utility.yul\":3927:3933   */\n      0x00\n        /* \"#utility.yul\":3976:3978   */\n      0x20\n        /* \"#utility.yul\":3964:3973   */\n      dup3\n        /* \"#utility.yul\":3955:3962   */\n      dup5\n        /* \"#utility.yul\":3951:3974   */\n      sub\n        /* \"#utility.yul\":3947:3979   */\n      slt\n        /* \"#utility.yul\":3944:4063   */\n      iszero\n      tag_137\n      jumpi\n        /* \"#utility.yul\":3982:4061   */\n      tag_138\n      tag_48\n      jump\t// in\n    tag_138:\n        /* \"#utility.yul\":3944:4063   */\n    tag_137:\n        /* \"#utility.yul\":4102:4103   */\n      0x00\n        /* \"#utility.yul\":4127:4180   */\n      tag_139\n        /* \"#utility.yul\":4172:4179   */\n      dup5\n        /* \"#utility.yul\":4163:4169   */\n      dup3\n        /* \"#utility.yul\":4152:4161   */\n      dup6\n        /* \"#utility.yul\":4148:4170   */\n      add\n        /* \"#utility.yul\":4127:4180   */\n      tag_64\n      jump\t// in\n    tag_139:\n        /* \"#utility.yul\":4117:4180   */\n      swap2\n      pop\n        /* \"#utility.yul\":4073:4190   */\n      pop\n        /* \"#utility.yul\":3868:4197   */\n      swap3\n      swap2\n      pop\n      pop\n      jump\t// out\n        /* \"#utility.yul\":4203:4302   */\n    tag_65:\n        /* \"#utility.yul\":4255:4261   */\n      0x00\n        /* \"#utility.yul\":4289:4294   */\n      dup2\n        /* \"#utility.yul\":4283:4295   */\n      mload\n        /* \"#utility.yul\":4273:4295   */\n      swap1\n      pop\n        /* \"#utility.yul\":4203:4302   */\n      swap2\n      swap1\n      pop\n      jump\t// out\n        /* \"#utility.yul\":4308:4477   */\n    tag_66:\n        /* \"#utility.yul\":4392:4403   */\n      0x00\n        /* \"#utility.yul\":4426:4432   */\n      dup3\n        /* \"#utility.yul\":4421:4424   */\n      dup3\n        /* \"#utility.yul\":4414:4433   */\n      mstore\n        /* \"#utility.yul\":4466:4470   */\n      0x20\n        /* \"#utility.yul\":4461:4464   */\n      dup3\n        /* \"#utility.yul\":4457:4471   */\n      add\n        /* \"#utility.yul\":4442:4471   */\n      swap1\n      pop\n        /* \"#utility.yul\":4308:4477   */\n      swap3\n      swap2\n      pop\n      pop\n      jump\t// out\n        /* \"#utility.yul\":4483:4729   */\n    tag_67:\n        /* \"#utility.yul\":4564:4565   */\n      0x00\n        /* \"#utility.yul\":4574:4687   */\n    tag_143:\n        /* \"#utility.yul\":4588:4594   */\n      dup4\n        /* \"#utility.yul\":4585:4586   */\n      dup2\n        /* \"#utility.yul\":4582:4595   */\n      lt\n        /* \"#utility.yul\":4574:4687   */\n      iszero\n      tag_145\n      jumpi\n        /* \"#utility.yul\":4673:4674   */\n      dup1\n        /* \"#utility.yul\":4668:4671   */\n      dup3\n        /* \"#utility.yul\":4664:4675   */\n      add\n        /* \"#utility.yul\":4658:4676   */\n      mload\n        /* \"#utility.yul\":4654:4655   */\n      dup2\n        /* \"#utility.yul\":4649:4652   */\n      dup5\n        /* \"#utility.yul\":4645:4656   */\n      add\n        /* \"#utility.yul\":4638:4677   */\n      mstore\n        /* \"#utility.yul\":4610:4612   */\n      0x20\n        /* \"#utility.yul\":4607:4608   */\n      dup2\n        /* \"#utility.yul\":4603:4613   */\n      add\n        /* \"#utility.yul\":4598:4613   */\n      swap1\n      pop\n        /* \"#utility.yul\":4574:4687   */\n      jump(tag_143)\n    tag_145:\n        /* \"#utility.yul\":4721:4722   */\n      0x00\n        /* \"#utility.yul\":4712:4718   */\n      dup5\n        /* \"#utility.yul\":4707:4710   */\n      dup5\n        /* \"#utility.yul\":4703:4719   */\n      add\n        /* \"#utility.yul\":4696:4723   */\n      mstore\n        /* \"#utility.yul\":4545:4729   */\n      pop\n        /* \"#utility.yul\":4483:4729   */\n      pop\n      pop\n      pop\n      jump\t// out\n        /* \"#utility.yul\":4735:5112   */\n    tag_68:\n        /* \"#utility.yul\":4823:4826   */\n      0x00\n        /* \"#utility.yul\":4851:4890   */\n      tag_147\n        /* \"#utility.yul\":4884:4889   */\n      dup3\n        /* \"#utility.yul\":4851:4890   */\n      tag_65\n      jump\t// in\n    tag_147:\n        /* \"#utility.yul\":4906:4977   */\n      tag_148\n        /* \"#utility.yul\":4970:4976   */\n      dup2\n        /* \"#utility.yul\":4965:4968   */\n      dup6\n        /* \"#utility.yul\":4906:4977   */\n      tag_66\n      jump\t// in\n    tag_148:\n        /* \"#utility.yul\":4899:4977   */\n      swap4\n      pop\n        /* \"#utility.yul\":4986:5051   */\n      tag_149\n        /* \"#utility.yul\":5044:5050   */\n      dup2\n        /* \"#utility.yul\":5039:5042   */\n      dup6\n        /* \"#utility.yul\":5032:5036   */\n      0x20\n        /* \"#utility.yul\":5025:5030   */\n      dup7\n        /* \"#utility.yul\":5021:5037   */\n      add\n        /* \"#utility.yul\":4986:5051   */\n      tag_67\n      jump\t// in\n    tag_149:\n        /* \"#utility.yul\":5076:5105   */\n      tag_150\n        /* \"#utility.yul\":5098:5104   */\n      dup2\n        /* \"#utility.yul\":5076:5105   */\n      tag_52\n      jump\t// in\n    tag_150:\n        /* \"#utility.yul\":5071:5074   */\n      dup5\n        /* \"#utility.yul\":5067:5106   */\n      add\n        /* \"#utility.yul\":5060:5106   */\n      swap2\n      pop\n        /* \"#utility.yul\":4827:5112   */\n      pop\n        /* \"#utility.yul\":4735:5112   */\n      swap3\n      swap2\n      pop\n      pop\n      jump\t// out\n        /* \"#utility.yul\":5118:5537   */\n    tag_19:\n        /* \"#utility.yul\":5257:5261   */\n      0x00\n        /* \"#utility.yul\":5295:5297   */\n      0x40\n        /* \"#utility.yul\":5284:5293   */\n      dup3\n        /* \"#utility.yul\":5280:5298   */\n      add\n        /* \"#utility.yul\":5272:5298   */\n      swap1\n      pop\n        /* \"#utility.yul\":5344:5353   */\n      dup2\n        /* \"#utility.yul\":5338:5342   */\n      dup2\n        /* \"#utility.yul\":5334:5354   */\n      sub\n        /* \"#utility.yul\":5330:5331   */\n      0x00\n        /* \"#utility.yul\":5319:5328   */\n      dup4\n        /* \"#utility.yul\":5315:5332   */\n      add\n        /* \"#utility.yul\":5308:5355   */\n      mstore\n        /* \"#utility.yul\":5372:5450   */\n      tag_152\n        /* \"#utility.yul\":5445:5449   */\n      dup2\n        /* \"#utility.yul\":5436:5442   */\n      dup6\n        /* \"#utility.yul\":5372:5450   */\n      tag_68\n      jump\t// in\n    tag_152:\n        /* \"#utility.yul\":5364:5450   */\n      swap1\n      pop\n        /* \"#utility.yul\":5460:5530   */\n      tag_153\n        /* \"#utility.yul\":5526:5528   */\n      0x20\n        /* \"#utility.yul\":5515:5524   */\n      dup4\n        /* \"#utility.yul\":5511:5529   */\n      add\n        /* \"#utility.yul\":5502:5508   */\n      dup5\n        /* \"#utility.yul\":5460:5530   */\n      tag_61\n      jump\t// in\n    tag_153:\n        /* \"#utility.yul\":5118:5537   */\n      swap4\n      swap3\n      pop\n      pop\n      pop\n      jump\t// out\n        /* \"#utility.yul\":5543:5663   */\n    tag_69:\n        /* \"#utility.yul\":5615:5638   */\n      tag_155\n        /* \"#utility.yul\":5632:5637   */\n      dup2\n        /* \"#utility.yul\":5615:5638   */\n      tag_60\n      jump\t// in\n    tag_155:\n        /* \"#utility.yul\":5608:5613   */\n      dup2\n        /* \"#utility.yul\":5605:5639   */\n      eq\n        /* \"#utility.yul\":5595:5657   */\n      tag_156\n      jumpi\n        /* \"#utility.yul\":5653:5654   */\n      0x00\n        /* \"#utility.yul\":5650:5651   */\n      dup1\n        /* \"#utility.yul\":5643:5655   */\n      revert\n        /* \"#utility.yul\":5595:5657   */\n    tag_156:\n        /* \"#utility.yul\":5543:5663   */\n      pop\n      jump\t// out\n        /* \"#utility.yul\":5669:5806   */\n    tag_70:\n        /* \"#utility.yul\":5714:5719   */\n      0x00\n        /* \"#utility.yul\":5752:5758   */\n      dup2\n        /* \"#utility.yul\":5739:5759   */\n      calldataload\n        /* \"#utility.yul\":5730:5759   */\n      swap1\n      pop\n        /* \"#utility.yul\":5768:5800   */\n      tag_158\n        /* \"#utility.yul\":5794:5799   */\n      dup2\n        /* \"#utility.yul\":5768:5800   */\n      tag_69\n      jump\t// in\n    tag_158:\n        /* \"#utility.yul\":5669:5806   */\n      swap3\n      swap2\n      pop\n      pop\n      jump\t// out\n        /* \"#utility.yul\":5812:6464   */\n    tag_25:\n        /* \"#utility.yul\":5889:5895   */\n      0x00\n        /* \"#utility.yul\":5897:5903   */\n      dup1\n        /* \"#utility.yul\":5946:5948   */\n      0x40\n        /* \"#utility.yul\":5934:5943   */\n      dup4\n        /* \"#utility.yul\":5925:5932   */\n      dup6\n        /* \"#utility.yul\":5921:5944   */\n      sub\n        /* \"#utility.yul\":5917:5949   */\n      slt\n        /* \"#utility.yul\":5914:6033   */\n      iszero\n      tag_160\n      jumpi\n        /* \"#utility.yul\":5952:6031   */\n      tag_161\n      tag_48\n      jump\t// in\n    tag_161:\n        /* \"#utility.yul\":5914:6033   */\n    tag_160:\n        /* \"#utility.yul\":6100:6101   */\n      0x00\n        /* \"#utility.yul\":6089:6098   */\n      dup4\n        /* \"#utility.yul\":6085:6102   */\n      add\n        /* \"#utility.yul\":6072:6103   */\n      calldataload\n        /* \"#utility.yul\":6130:6148   */\n      0xffffffffffffffff\n        /* \"#utility.yul\":6122:6128   */\n      dup2\n        /* \"#utility.yul\":6119:6149   */\n      gt\n        /* \"#utility.yul\":6116:6233   */\n      iszero\n      tag_162\n      jumpi\n        /* \"#utility.yul\":6152:6231   */\n      tag_163\n      tag_49\n      jump\t// in\n    tag_163:\n        /* \"#utility.yul\":6116:6233   */\n    tag_162:\n        /* \"#utility.yul\":6257:6320   */\n      tag_164\n        /* \"#utility.yul\":6312:6319   */\n      dup6\n        /* \"#utility.yul\":6303:6309   */\n      dup3\n        /* \"#utility.yul\":6292:6301   */\n      dup7\n        /* \"#utility.yul\":6288:6310   */\n      add\n        /* \"#utility.yul\":6257:6320   */\n      tag_59\n      jump\t// in\n    tag_164:\n        /* \"#utility.yul\":6247:6320   */\n      swap3\n      pop\n        /* \"#utility.yul\":6043:6330   */\n      pop\n        /* \"#utility.yul\":6369:6371   */\n      0x20\n        /* \"#utility.yul\":6395:6447   */\n      tag_165\n        /* \"#utility.yul\":6439:6446   */\n      dup6\n        /* \"#utility.yul\":6430:6436   */\n      dup3\n        /* \"#utility.yul\":6419:6428   */\n      dup7\n        /* \"#utility.yul\":6415:6437   */\n      add\n        /* \"#utility.yul\":6395:6447   */\n      tag_70\n      jump\t// in\n    tag_165:\n        /* \"#utility.yul\":6385:6447   */\n      swap2\n      pop\n        /* \"#utility.yul\":6340:6457   */\n      pop\n        /* \"#utility.yul\":5812:6464   */\n      swap3\n      pop\n      swap3\n      swap1\n      pop\n      jump\t// out\n        /* \"#utility.yul\":6470:6797   */\n    tag_29:\n        /* \"#utility.yul\":6528:6534   */\n      0x00\n        /* \"#utility.yul\":6577:6579   */\n      0x20\n        /* \"#utility.yul\":6565:6574   */\n      dup3\n        /* \"#utility.yul\":6556:6563   */\n      dup5\n        /* \"#utility.yul\":6552:6575   */\n      sub\n        /* \"#utility.yul\":6548:6580   */\n      slt\n        /* \"#utility.yul\":6545:6664   */\n      iszero\n      tag_167\n      jumpi\n        /* \"#utility.yul\":6583:6662   */\n      tag_168\n      tag_48\n      jump\t// in\n    tag_168:\n        /* \"#utility.yul\":6545:6664   */\n    tag_167:\n        /* \"#utility.yul\":6703:6704   */\n      0x00\n        /* \"#utility.yul\":6728:6780   */\n      tag_169\n        /* \"#utility.yul\":6772:6779   */\n      dup5\n        /* \"#utility.yul\":6763:6769   */\n      dup3\n        /* \"#utility.yul\":6752:6761   */\n      dup6\n        /* \"#utility.yul\":6748:6770   */\n      add\n        /* \"#utility.yul\":6728:6780   */\n      tag_70\n      jump\t// in\n    tag_169:\n        /* \"#utility.yul\":6718:6780   */\n      swap2\n      pop\n        /* \"#utility.yul\":6674:6790   */\n      pop\n        /* \"#utility.yul\":6470:6797   */\n      swap3\n      swap2\n      pop\n      pop\n      jump\t// out\n        /* \"#utility.yul\":6803:6983   */\n    tag_71:\n        /* \"#utility.yul\":6851:6928   */\n      0x4e487b7100000000000000000000000000000000000000000000000000000000\n        /* \"#utility.yul\":6848:6849   */\n      0x00\n        /* \"#utility.yul\":6841:6929   */\n      mstore\n        /* \"#utility.yul\":6948:6952   */\n      0x22\n        /* \"#utility.yul\":6945:6946   */\n      0x04\n        /* \"#utility.yul\":6938:6953   */\n      mstore\n        /* \"#utility.yul\":6972:6976   */\n      0x24\n        /* \"#utility.yul\":6969:6970   */\n      0x00\n        /* \"#utility.yul\":6962:6977   */\n      revert\n        /* \"#utility.yul\":6989:7309   */\n    tag_34:\n        /* \"#utility.yul\":7033:7039   */\n      0x00\n        /* \"#utility.yul\":7070:7071   */\n      0x02\n        /* \"#utility.yul\":7064:7068   */\n      dup3\n        /* \"#utility.yul\":7060:7072   */\n      div\n        /* \"#utility.yul\":7050:7072   */\n      swap1\n      pop\n        /* \"#utility.yul\":7117:7118   */\n      0x01\n        /* \"#utility.yul\":7111:7115   */\n      dup3\n        /* \"#utility.yul\":7107:7119   */\n      and\n        /* \"#utility.yul\":7138:7156   */\n      dup1\n        /* \"#utility.yul\":7128:7209   */\n      tag_172\n      jumpi\n        /* \"#utility.yul\":7194:7198   */\n      0x7f\n        /* \"#utility.yul\":7186:7192   */\n      dup3\n        /* \"#utility.yul\":7182:7199   */\n      and\n        /* \"#utility.yul\":7172:7199   */\n      swap2\n      pop\n        /* \"#utility.yul\":7128:7209   */\n    tag_172:\n        /* \"#utility.yul\":7256:7258   */\n      0x20\n        /* \"#utility.yul\":7248:7254   */\n      dup3\n        /* \"#utility.yul\":7245:7259   */\n      lt\n        /* \"#utility.yul\":7225:7243   */\n      dup2\n        /* \"#utility.yul\":7222:7260   */\n      sub\n        /* \"#utility.yul\":7219:7303   */\n      tag_173\n      jumpi\n        /* \"#utility.yul\":7275:7293   */\n      tag_174\n      tag_71\n      jump\t// in\n    tag_174:\n        /* \"#utility.yul\":7219:7303   */\n    tag_173:\n        /* \"#utility.yul\":7040:7309   */\n      pop\n        /* \"#utility.yul\":6989:7309   */\n      swap2\n      swap1\n      pop\n      jump\t// out\n        /* \"#utility.yul\":7315:7456   */\n    tag_72:\n        /* \"#utility.yul\":7364:7368   */\n      0x00\n        /* \"#utility.yul\":7387:7390   */\n      dup2\n        /* \"#utility.yul\":7379:7390   */\n      swap1\n      pop\n        /* \"#utility.yul\":7410:7413   */\n      dup2\n        /* \"#utility.yul\":7407:7408   */\n      0x00\n        /* \"#utility.yul\":7400:7414   */\n      mstore\n        /* \"#utility.yul\":7444:7448   */\n      0x20\n        /* \"#utility.yul\":7441:7442   */\n      0x00\n        /* \"#utility.yul\":7431:7449   */\n      keccak256\n        /* \"#utility.yul\":7423:7449   */\n      swap1\n      pop\n        /* \"#utility.yul\":7315:7456   */\n      swap2\n      swap1\n      pop\n      jump\t// out\n        /* \"#utility.yul\":7462:7555   */\n    tag_73:\n        /* \"#utility.yul\":7499:7505   */\n      0x00\n        /* \"#utility.yul\":7546:7548   */\n      0x20\n        /* \"#utility.yul\":7541:7543   */\n      0x1f\n        /* \"#utility.yul\":7534:7539   */\n      dup4\n        /* \"#utility.yul\":7530:7544   */\n      add\n        /* \"#utility.yul\":7526:7549   */\n      div\n        /* \"#utility.yul\":7516:7549   */\n      swap1\n      pop\n        /* \"#utility.yul\":7462:7555   */\n      swap2\n      swap1\n      pop\n      jump\t// out\n        /* \"#utility.yul\":7561:7668   */\n    tag_74:\n        /* \"#utility.yul\":7605:7613   */\n      0x00\n        /* \"#utility.yul\":7655:7660   */\n      dup3\n        /* \"#utility.yul\":7649:7653   */\n      dup3\n        /* \"#utility.yul\":7645:7661   */\n      shl\n        /* \"#utility.yul\":7624:7661   */\n      swap1\n      pop\n        /* \"#utility.yul\":7561:7668   */\n      swap3\n      swap2\n      pop\n      pop\n      jump\t// out\n        /* \"#utility.yul\":7674:8067   */\n    tag_75:\n        /* \"#utility.yul\":7743:7749   */\n      0x00\n        /* \"#utility.yul\":7793:7794   */\n      0x08\n        /* \"#utility.yul\":7781:7791   */\n      dup4\n        /* \"#utility.yul\":7777:7795   */\n      mul\n        /* \"#utility.yul\":7816:7913   */\n      tag_179\n        /* \"#utility.yul\":7846:7912   */\n      0xffffffffffffffffffffffffffffffffffffffffffffffffffffffffffffffff\n        /* \"#utility.yul\":7835:7844   */\n      dup3\n        /* \"#utility.yul\":7816:7913   */\n      tag_74\n      jump\t// in\n    tag_179:\n        /* \"#utility.yul\":7934:7973   */\n      tag_180\n        /* \"#utility.yul\":7964:7972   */\n      dup7\n        /* \"#utility.yul\":7953:7962   */\n      dup4\n        /* \"#utility.yul\":7934:7973   */\n      tag_74\n      jump\t// in\n    tag_180:\n        /* \"#utility.yul\":7922:7973   */\n      swap6\n      pop\n        /* \"#utility.yul\":8006:8010   */\n      dup1\n        /* \"#utility.yul\":8002:8011   */\n      not\n        /* \"#utility.yul\":7995:8000   */\n      dup5\n        /* \"#utility.yul\":7991:8012   */\n      and\n        /* \"#utility.yul\":7982:8012   */\n      swap4\n      pop\n        /* \"#utility.yul\":8055:8059   */\n      dup1\n        /* \"#utility.yul\":8045:8053   */\n      dup7\n        /* \"#utility.yul\":8041:8060   */\n      and\n        /* \"#utility.yul\":8034:8039   */\n      dup5\n        /* \"#utility.yul\":8031:8061   */\n      or\n        /* \"#utility.yul\":8021:8061   */\n      swap3\n      pop\n        /* \"#utility.yul\":7750:8067   */\n      pop\n      pop\n        /* \"#utility.yul\":7674:8067   */\n      swap4\n      swap3\n      pop\n      pop\n      pop\n      jump\t// out\n        /* \"#utility.yul\":8073:8133   */\n    tag_76:\n        /* \"#utility.yul\":8101:8104   */\n      0x00\n        /* \"#utility.yul\":8122:8127   */\n      dup2\n        /* \"#utility.yul\":8115:8127   */\n      swap1\n      pop\n        /* \"#utility.yul\":8073:8133   */\n      swap2\n      swap1\n      pop\n      jump\t// out\n        /* \"#utility.yul\":8139:8281   */\n    tag_77:\n        /* \"#utility.yul\":8189:8198   */\n      0x00\n        /* \"#utility.yul\":8222:8275   */\n      tag_183\n        /* \"#utility.yul\":8240:8274   */\n      tag_184\n        /* \"#utility.yul\":8249:8273   */\n      tag_185\n        /* \"#utility.yul\":8267:8272   */\n      dup5\n        /* \"#utility.yul\":8249:8273   */\n      tag_62\n      jump\t// in\n    tag_185:\n        /* \"#utility.yul\":8240:8274   */\n      tag_76\n      jump\t// in\n    tag_184:\n        /* \"#utility.yul\":8222:8275   */\n      tag_62\n      jump\t// in\n    tag_183:\n        /* \"#utility.yul\":8209:8275   */\n      swap1\n      pop\n        /* \"#utility.yul\":8139:8281   */\n      swap2\n      swap1\n      pop\n      jump\t// out\n        /* \"#utility.yul\":8287:8362   */\n    tag_78:\n        /* \"#utility.yul\":8330:8333   */\n      0x00\n        /* \"#utility.yul\":8351:8356   */\n      dup2\n        /* \"#utility.yul\":8344:8356   */\n      swap1\n      pop\n        /* \"#utility.yul\":8287:8362   */\n      swap2\n      swap1\n      pop\n      jump\t// out\n        /* \"#utility.yul\":8368:8637   */\n    tag_79:\n        /* \"#utility.yul\":8478:8517   */\n      tag_188\n        /* \"#utility.yul\":8509:8516   */\n      dup4\n        /* \"#utility.yul\":8478:8517   */\n      tag_77\n      jump\t// in\n    tag_188:\n        /* \"#utility.yul\":8539:8630   */\n      tag_189\n        /* \"#utility.yul\":8588:8629   */\n      tag_190\n        /* \"#utility.yul\":8612:8628   */\n      dup3\n        /* \"#utility.yul\":8588:8629   */\n      tag_78\n      jump\t// in\n    tag_190:\n        /* \"#utility.yul\":8580:8586   */\n      dup5\n        /* \"#utility.yul\":8573:8577   */\n      dup5\n        /* \"#utility.yul\":8567:8578   */\n      sload\n        /* \"#utility.yul\":8539:8630   */\n      tag_75\n      jump\t// in\n    tag_189:\n        /* \"#utility.yul\":8533:8537   */\n      dup3\n        /* \"#utility.yul\":8526:8631   */\n      sstore\n        /* \"#utility.yul\":8444:8637   */\n      pop\n        /* \"#utility.yul\":8368:8637   */\n      pop\n      pop\n      pop\n      jump\t// out\n        /* \"#utility.yul\":8643:8716   */\n    tag_80:\n        /* \"#utility.yul\":8688:8691   */\n      0x00\n        /* \"#utility.yul\":8643:8716   */\n      swap1\n      jump\t// out\n        /* \"#utility.yul\":8722:8911   */\n    tag_81:\n        /* \"#utility.yul\":8799:8831   */\n      tag_193\n      tag_80\n      jump\t// in\n    tag_193:\n        /* \"#utility.yul\":8840:8905   */\n      tag_194\n        /* \"#utility.yul\":8898:8904   */\n      dup2\n        /* \"#utility.yul\":8890:8896   */\n      dup5\n        /* \"#utility.yul\":8884:8888   */\n      dup5\n        /* \"#utility.yul\":8840:8905   */\n      tag_79\n      jump\t// in\n    tag_194:\n        /* \"#utility.yul\":8775:8911   */\n      pop\n        /* \"#utility.yul\":8722:8911   */\n      pop\n      pop\n      jump\t// out\n        /* \"#utility.yul\":8917:9103   */\n    tag_82:\n        /* \"#utility.yul\":8977:9097   */\n    tag_196:\n        /* \"#utility.yul\":8994:8997   */\n      dup2\n        /* \"#utility.yul\":8987:8992   */\n      dup2\n        /* \"#utility.yul\":8984:8998   */\n      lt\n        /* \"#utility.yul\":8977:9097   */\n      iszero\n      tag_198\n      jumpi\n        /* \"#utility.yul\":9048:9087   */\n      tag_199\n        /* \"#utility.yul\":9085:9086   */\n      0x00\n        /* \"#utility.yul\":9078:9083   */\n      dup3\n        /* \"#utility.yul\":9048:9087   */\n      tag_81\n      jump\t// in\n    tag_199:\n        /* \"#utility.yul\":9021:9022   */\n      0x01\n        /* \"#utility.yul\":9014:9019   */\n      dup2\n        /* \"#utility.yul\":9010:9023   */\n      add\n        /* \"#utility.yul\":9001:9023   */\n      swap1\n      pop\n        /* \"#utility.yul\":8977:9097   */\n      jump(tag_196)\n    tag_198:\n        /* \"#utility.yul\":8917:9103   */\n      pop\n      pop\n      jump\t// out\n        /* \"#utility.yul\":9109:9652   */\n    tag_83:\n        /* \"#utility.yul\":9210:9212   */\n      0x1f\n        /* \"#utility.yul\":9205:9208   */\n      dup3\n        /* \"#utility.yul\":9202:9213   */\n      gt\n        /* \"#utility.yul\":9199:9645   */\n      iszero\n      tag_201\n      jumpi\n        /* \"#utility.yul\":9244:9282   */\n      tag_202\n        /* \"#utility.yul\":9276:9281   */\n      dup2\n        /* \"#utility.yul\":9244:9282   */\n      tag_72\n      jump\t// in\n    tag_202:\n        /* \"#utility.yul\":9328:9357   */\n      tag_203\n        /* \"#utility.yul\":9346:9356   */\n      dup5\n        /* \"#utility.yul\":9328:9357   */\n      tag_73\n      jump\t// in\n    tag_203:\n        /* \"#utility.yul\":9318:9326   */\n      dup2\n        /* \"#utility.yul\":9314:9358   */\n      add\n        /* \"#utility.yul\":9511:9513   */\n      0x20\n        /* \"#utility.yul\":9499:9509   */\n      dup6\n        /* \"#utility.yul\":9496:9514   */\n      lt\n        /* \"#utility.yul\":9493:9542   */\n      iszero\n      tag_204\n      jumpi\n        /* \"#utility.yul\":9532:9540   */\n      dup2\n        /* \"#utility.yul\":9517:9540   */\n      swap1\n      pop\n        /* \"#utility.yul\":9493:9542   */\n    tag_204:\n        /* \"#utility.yul\":9555:9635   */\n      tag_205\n        /* \"#utility.yul\":9611:9633   */\n      tag_206\n        /* \"#utility.yul\":9629:9632   */\n      dup6\n        /* \"#utility.yul\":9611:9633   */\n      tag_73\n      jump\t// in\n    tag_206:\n        /* \"#utility.yul\":9601:9609   */\n      dup4\n        /* \"#utility.yul\":9597:9634   */\n      add\n        /* \"#utility.yul\":9584:9595   */\n      dup3\n        /* \"#utility.yul\":9555:9635   */\n      tag_82\n      jump\t// in\n    tag_205:\n        /* \"#utility.yul\":9214:9645   */\n      pop\n      pop\n        /* \"#utility.yul\":9199:9645   */\n    tag_201:\n        /* \"#utility.yul\":9109:9652   */\n      pop\n      pop\n      pop\n      jump\t// out\n        /* \"#utility.yul\":9658:9775   */\n    tag_84:\n        /* \"#utility.yul\":9712:9720   */\n      0x00\n        /* \"#utility.yul\":9762:9767   */\n      dup3\n        /* \"#utility.yul\":9756:9760   */\n      dup3\n        /* \"#utility.yul\":9752:9768   */\n      shr\n        /* \"#utility.yul\":9731:9768   */\n      swap1\n      pop\n        /* \"#utility.yul\":9658:9775   */\n      swap3\n      swap2\n      pop\n      pop\n      jump\t// out\n        /* \"#utility.yul\":9781:9950   */\n    tag_85:\n        /* \"#utility.yul\":9825:9831   */\n      0x00\n        /* \"#utility.yul\":9858:9909   */\n      tag_209\n        /* \"#utility.yul\":9906:9907   */\n      0x00\n        /* \"#utility.yul\":9902:9908   */\n      not\n        /* \"#utility.yul\":9894:9899   */\n      dup5\n        /* \"#utility.yul\":9891:9892   */\n      0x08\n        /* \"#utility.yul\":9887:9900   */\n      mul\n        /* \"#utility.yul\":9858:9909   */\n      tag_84\n      jump\t// in\n    tag_209:\n        /* \"#utility.yul\":9854:9910   */\n      not\n        /* \"#utility.yul\":9939:9943   */\n      dup1\n        /* \"#utility.yul\":9933:9937   */\n      dup4\n        /* \"#utility.yul\":9929:9944   */\n      and\n        /* \"#utility.yul\":9919:9944   */\n      swap2\n      pop\n        /* \"#utility.yul\":9832:9950   */\n      pop\n        /* \"#utility.yul\":9781:9950   */\n      swap3\n      swap2\n      pop\n      pop\n      jump\t// out\n        /* \"#utility.yul\":9955:10250   */\n    tag_86:\n        /* \"#utility.yul\":10031:10035   */\n      0x00\n        /* \"#utility.yul\":10177:10206   */\n      tag_211\n        /* \"#utility.yul\":10202:10205   */\n      dup4\n        /* \"#utility.yul\":10196:10200   */\n      dup4\n        /* \"#utility.yul\":10177:10206   */\n      tag_85\n      jump\t// in\n    tag_211:\n        /* \"#utility.yul\":10169:10206   */\n      swap2\n      pop\n        /* \"#utility.yul\":10239:10242   */\n      dup3\n        /* \"#utility.yul\":10236:10237   */\n      0x02\n        /* \"#utility.yul\":10232:10243   */\n      mul\n        /* \"#utility.yul\":10226:10230   */\n      dup3\n        /* \"#utility.yul\":10223:10244   */\n      or\n        /* \"#utility.yul\":10215:10244   */\n      swap1\n      pop\n        /* \"#utility.yul\":9955:10250   */\n      swap3\n      swap2\n      pop\n      pop\n      jump\t// out\n        /* \"#utility.yul\":10255:11650   */\n    tag_43:\n        /* \"#utility.yul\":10372:10409   */\n      tag_213\n        /* \"#utility.yul\":10405:10408   */\n      dup3\n        /* \"#utility.yul\":10372:10409   */\n      tag_65\n      jump\t// in\n    tag_213:\n        /* \"#utility.yul\":10474:10492   */\n      0xffffffffffffffff\n        /* \"#utility.yul\":10466:10472   */\n      dup2\n        /* \"#utility.yul\":10463:10493   */\n      gt\n        /* \"#utility.yul\":10460:10516   */\n      iszero\n      tag_214\n      jumpi\n        /* \"#utility.yul\":10496:10514   */\n      tag_215\n      tag_53\n      jump\t// in\n    tag_215:\n        /* \"#utility.yul\":10460:10516   */\n    tag_214:\n        /* \"#utility.yul\":10540:10578   */\n      tag_216\n        /* \"#utility.yul\":10572:10576   */\n      dup3\n        /* \"#utility.yul\":10566:10577   */\n      sload\n        /* \"#utility.yul\":10540:10578   */\n      tag_34\n      jump\t// in\n    tag_216:\n        /* \"#utility.yul\":10625:10692   */\n      tag_217\n        /* \"#utility.yul\":10685:10691   */\n      dup3\n        /* \"#utility.yul\":10677:10683   */\n      dup3\n        /* \"#utility.yul\":10671:10675   */\n      dup6\n        /* \"#utility.yul\":10625:10692   */\n      tag_83\n      jump\t// in\n    tag_217:\n        /* \"#utility.yul\":10719:10720   */\n      0x00\n        /* \"#utility.yul\":10743:10747   */\n      0x20\n        /* \"#utility.yul\":10730:10747   */\n      swap1\n      pop\n        /* \"#utility.yul\":10775:10777   */\n      0x1f\n        /* \"#utility.yul\":10767:10773   */\n      dup4\n        /* \"#utility.yul\":10764:10778   */\n      gt\n        /* \"#utility.yul\":10792:10793   */\n      0x01\n        /* \"#utility.yul\":10787:11405   */\n      dup2\n      eq\n      tag_219\n      jumpi\n        /* \"#utility.yul\":11449:11450   */\n      0x00\n        /* \"#utility.yul\":11466:11472   */\n      dup5\n        /* \"#utility.yul\":11463:11540   */\n      iszero\n      tag_220\n      jumpi\n        /* \"#utility.yul\":11515:11524   */\n      dup3\n        /* \"#utility.yul\":11510:11513   */\n      dup8\n        /* \"#utility.yul\":11506:11525   */\n      add\n        /* \"#utility.yul\":11500:11526   */\n      mload\n        /* \"#utility.yul\":11491:11526   */\n      swap1\n      pop\n        /* \"#utility.yul\":11463:11540   */\n    tag_220:\n        /* \"#utility.yul\":11566:11633   */\n      tag_221\n        /* \"#utility.yul\":11626:11632   */\n      dup6\n        /* \"#utility.yul\":11619:11624   */\n      dup3\n        /* \"#utility.yul\":11566:11633   */\n      tag_86\n      jump\t// in\n    tag_221:\n        /* \"#utility.yul\":11560:11564   */\n      dup7\n        /* \"#utility.yul\":11553:11634   */\n      sstore\n        /* \"#utility.yul\":11422:11644   */\n      pop\n        /* \"#utility.yul\":10757:11644   */\n      jump(tag_218)\n        /* \"#utility.yul\":10787:11405   */\n    tag_219:\n        /* \"#utility.yul\":10839:10843   */\n      0x1f\n        /* \"#utility.yul\":10835:10844   */\n      not\n        /* \"#utility.yul\":10827:10833   */\n      dup5\n        /* \"#utility.yul\":10823:10845   */\n      and\n        /* \"#utility.yul\":10873:10910   */\n      tag_222\n        /* \"#utility.yul\":10905:10909   */\n      dup7\n        /* \"#utility.yul\":10873:10910   */\n      tag_72\n      jump\t// in\n    tag_222:\n        /* \"#utility.yul\":10932:10933   */\n      0x00\n        /* \"#utility.yul\":10946:11154   */\n    tag_223:\n        /* \"#utility.yul\":10960:10967   */\n      dup3\n        /* \"#utility.yul\":10957:10958   */\n      dup2\n        /* \"#utility.yul\":10954:10968   */\n      lt\n        /* \"#utility.yul\":10946:11154   */\n      iszero\n      tag_225\n      jumpi\n        /* \"#utility.yul\":11039:11048   */\n      dup5\n        /* \"#utility.yul\":11034:11037   */\n      dup10\n        /* \"#utility.yul\":11030:11049   */\n      add\n        /* \"#utility.yul\":11024:11050   */\n      mload\n        /* \"#utility.yul\":11016:11022   */\n      dup3\n        /* \"#utility.yul\":11009:11051   */\n      sstore\n        /* \"#utility.yul\":11090:11091   */\n      0x01\n        /* \"#utility.yul\":11082:11088   */\n      dup3\n        /* \"#utility.yul\":11078:11092   */\n      add\n        /* \"#utility.yul\":11068:11092   */\n      swap2\n      pop\n        /* \"#utility.yul\":11137:11139   */\n      0x20\n        /* \"#utility.yul\":11126:11135   */\n      dup6\n        /* \"#utility.yul\":11122:11140   */\n      add\n        /* \"#utility.yul\":11109:11140   */\n      swap5\n      pop\n        /* \"#utility.yul\":10983:10987   */\n      0x20\n        /* \"#utility.yul\":10980:10981   */\n      dup2\n        /* \"#utility.yul\":10976:10988   */\n      add\n        /* \"#utility.yul\":10971:10988   */\n      swap1\n      pop\n        /* \"#utility.yul\":10946:11154   */\n      jump(tag_223)\n    tag_225:\n        /* \"#utility.yul\":11182:11188   */\n      dup7\n        /* \"#utility.yul\":11173:11180   */\n      dup4\n        /* \"#utility.yul\":11170:11189   */\n      lt\n        /* \"#utility.yul\":11167:11346   */\n      iszero\n      tag_226\n      jumpi\n        /* \"#utility.yul\":11240:11249   */\n      dup5\n        /* \"#utility.yul\":11235:11238   */\n      dup10\n        /* \"#utility.yul\":11231:11250   */\n      add\n        /* \"#utility.yul\":11225:11251   */\n      mload\n        /* \"#utility.yul\":11283:11331   */\n      tag_227\n        /* \"#utility.yul\":11325:11329   */\n      0x1f\n        /* \"#utility.yul\":11317:11323   */\n      dup10\n        /* \"#utility.yul\":11313:11330   */\n      and\n        /* \"#utility.yul\":11302:11311   */\n      dup3\n        /* \"#utility.yul\":11283:11331   */\n      tag_85\n      jump\t// in\n    tag_227:\n        /* \"#utility.yul\":11275:11281   */\n      dup4\n        /* \"#utility.yul\":11268:11332   */\n      sstore\n        /* \"#utility.yul\":11190:11346   */\n      pop\n        /* \"#utility.yul\":11167:11346   */\n    tag_226:\n        /* \"#utility.yul\":11392:11393   */\n      0x01\n        /* \"#utility.yul\":11388:11389   */\n      0x02\n        /* \"#utility.yul\":11380:11386   */\n      dup9\n        /* \"#utility.yul\":11376:11390   */\n      mul\n        /* \"#utility.yul\":11372:11394   */\n      add\n        /* \"#utility.yul\":11366:11370   */\n      dup9\n        /* \"#utility.yul\":11359:11395   */\n      sstore\n        /* \"#utility.yul\":10794:11405   */\n      pop\n      pop\n      pop\n        /* \"#utility.yul\":10757:11644   */\n    tag_218:\n      pop\n        /* \"#utility.yul\":10347:11650   */\n      pop\n      pop\n      pop\n        /* \"#utility.yul\":10255:11650   */\n      pop\n      pop\n      jump\t// out\n        /* \"#utility.yul\":11656:11804   */\n    tag_87:\n        /* \"#utility.yul\":11758:11769   */\n      0x00\n        /* \"#utility.yul\":11795:11798   */\n      dup2\n        /* \"#utility.yul\":11780:11798   */\n      swap1\n      pop\n        /* \"#utility.yul\":11656:11804   */\n      swap3\n      swap2\n      pop\n      pop\n      jump\t// out\n        /* \"#utility.yul\":11810:12200   */\n    tag_88:\n        /* \"#utility.yul\":11916:11919   */\n      0x00\n        /* \"#utility.yul\":11944:11983   */\n      tag_230\n        /* \"#utility.yul\":11977:11982   */\n      dup3\n        /* \"#utility.yul\":11944:11983   */\n      tag_65\n      jump\t// in\n    tag_230:\n        /* \"#utility.yul\":11999:12088   */\n      tag_231\n        /* \"#utility.yul\":12081:12087   */\n      dup2\n        /* \"#utility.yul\":12076:12079   */\n      dup6\n        /* \"#utility.yul\":11999:12088   */\n      tag_87\n      jump\t// in\n    tag_231:\n        /* \"#utility.yul\":11992:12088   */\n      swap4\n      pop\n        /* \"#utility.yul\":12097:12162   */\n      tag_232\n        /* \"#utility.yul\":12155:12161   */\n      dup2\n        /* \"#utility.yul\":12150:12153   */\n      dup6\n        /* \"#utility.yul\":12143:12147   */\n      0x20\n        /* \"#utility.yul\":12136:12141   */\n      dup7\n        /* \"#utility.yul\":12132:12148   */\n      add\n        /* \"#utility.yul\":12097:12162   */\n      tag_67\n      jump\t// in\n    tag_232:\n        /* \"#utility.yul\":12187:12193   */\n      dup1\n        /* \"#utility.yul\":12182:12185   */\n      dup5\n        /* \"#utility.yul\":12178:12194   */\n      add\n        /* \"#utility.yul\":12171:12194   */\n      swap2\n      pop\n        /* \"#utility.yul\":11920:12200   */\n      pop\n        /* \"#utility.yul\":11810:12200   */\n      swap3\n      swap2\n      pop\n      pop\n      jump\t// out\n        /* \"#utility.yul\":12206:12481   */\n    tag_45:\n        /* \"#utility.yul\":12338:12341   */\n      0x00\n        /* \"#utility.yul\":12360:12455   */\n      tag_234\n        /* \"#utility.yul\":12451:12454   */\n      dup3\n        /* \"#utility.yul\":12442:12448   */\n      dup5\n        /* \"#utility.yul\":12360:12455   */\n      tag_88\n      jump\t// in\n    tag_234:\n        /* \"#utility.yul\":12353:12455   */\n      swap2\n      pop\n        /* \"#utility.yul\":12472:12475   */\n      dup2\n        /* \"#utility.yul\":12465:12475   */\n      swap1\n      pop\n        /* \"#utility.yul\":12206:12481   */\n      swap3\n      swap2\n      pop\n      pop\n      jump\t// out\n\n    auxdata: 0xa26469706673582212205a87c73cf5f83bfdc91add6d03256d17a800beb57bc1bf0b990cd17ba6654c0e64736f6c63430008120033\n}\n",
				"bytecode": {
					"linkReferences": {},
					"object": "608060405234801561001057600080fd5b50610a26806100206000396000f3fe608060405234801561001057600080fd5b50600436106100575760003560e01c80630abc3fa91461005c5780632ebce6311461008c5780633489d874146100bd578063742d8823146100db578063b9e95382146100f7575b600080fd5b61007660048036038101906100719190610475565b610113565b60405161008391906104dd565b60405180910390f35b6100a660048036038101906100a1919061052e565b61014c565b6040516100b49291906105da565b60405180910390f35b6100c5610218565b6040516100d291906104dd565b60405180910390f35b6100f560048036038101906100f09190610636565b610231565b005b610111600480360381019061010c9190610692565b6102f7565b005b6002818051602081018201805184825260208301602085012081835280955050505050506000915054906101000a900463ffffffff1681565b6001818154811061015c57600080fd5b906000526020600020906002020160009150905080600001805461017f906106ee565b80601f01602080910402602001604051908101604052809291908181526020018280546101ab906106ee565b80156101f85780601f106101cd576101008083540402835291602001916101f8565b820191906000526020600020905b8154815290600101906020018083116101db57829003601f168201915b5050505050908060010160009054906101000a900463ffffffff16905082565b60008060049054906101000a900463ffffffff16905090565b600160405180604001604052808481526020018363ffffffff168152509080600181540180825580915050600190039060005260206000209060020201600090919091909150600082015181600001908161028c91906108cb565b5060208201518160010160006101000a81548163ffffffff021916908363ffffffff1602179055505050806002836040516102c791906109d9565b908152602001604051809103902060006101000a81548163ffffffff021916908363ffffffff1602179055505050565b80600060046101000a81548163ffffffff021916908363ffffffff16021790555050565b6000604051905090565b600080fd5b600080fd5b600080fd5b600080fd5b6000601f19601f8301169050919050565b7f4e487b7100000000000000000000000000000000000000000000000000000000600052604160045260246000fd5b61038282610339565b810181811067ffffffffffffffff821117156103a1576103a061034a565b5b80604052505050565b60006103b461031b565b90506103c08282610379565b919050565b600067ffffffffffffffff8211156103e0576103df61034a565b5b6103e982610339565b9050602081019050919050565b82818337600083830152505050565b6000610418610413846103c5565b6103aa565b90508281526020810184848401111561043457610433610334565b5b61043f8482856103f6565b509392505050565b600082601f83011261045c5761045b61032f565b5b813561046c848260208601610405565b91505092915050565b60006020828403121561048b5761048a610325565b5b600082013567ffffffffffffffff8111156104a9576104a861032a565b5b6104b584828501610447565b91505092915050565b600063ffffffff82169050919050565b6104d7816104be565b82525050565b60006020820190506104f260008301846104ce565b92915050565b6000819050919050565b61050b816104f8565b811461051657600080fd5b50565b60008135905061052881610502565b92915050565b60006020828403121561054457610543610325565b5b600061055284828501610519565b91505092915050565b600081519050919050565b600082825260208201905092915050565b60005b8381101561059557808201518184015260208101905061057a565b60008484015250505050565b60006105ac8261055b565b6105b68185610566565b93506105c6818560208601610577565b6105cf81610339565b840191505092915050565b600060408201905081810360008301526105f481856105a1565b905061060360208301846104ce565b9392505050565b610613816104be565b811461061e57600080fd5b50565b6000813590506106308161060a565b92915050565b6000806040838503121561064d5761064c610325565b5b600083013567ffffffffffffffff81111561066b5761066a61032a565b5b61067785828601610447565b925050602061068885828601610621565b9150509250929050565b6000602082840312156106a8576106a7610325565b5b60006106b684828501610621565b91505092915050565b7f4e487b7100000000000000000000000000000000000000000000000000000000600052602260045260246000fd5b6000600282049050600182168061070657607f821691505b602082108103610719576107186106bf565b5b50919050565b60008190508160005260206000209050919050565b60006020601f8301049050919050565b600082821b905092915050565b6000600883026107817fffffffffffffffffffffffffffffffffffffffffffffffffffffffffffffffff82610744565b61078b8683610744565b95508019841693508086168417925050509392505050565b6000819050919050565b60006107c86107c36107be846104f8565b6107a3565b6104f8565b9050919050565b6000819050919050565b6107e2836107ad565b6107f66107ee826107cf565b848454610751565b825550505050565b600090565b61080b6107fe565b6108168184846107d9565b505050565b5b8181101561083a5761082f600082610803565b60018101905061081c565b5050565b601f82111561087f576108508161071f565b61085984610734565b81016020851015610868578190505b61087c61087485610734565b83018261081b565b50505b505050565b600082821c905092915050565b60006108a260001984600802610884565b1980831691505092915050565b60006108bb8383610891565b9150826002028217905092915050565b6108d48261055b565b67ffffffffffffffff8111156108ed576108ec61034a565b5b6108f782546106ee565b61090282828561083e565b600060209050601f8311600181146109355760008415610923578287015190505b61092d85826108af565b865550610995565b601f1984166109438661071f565b60005b8281101561096b57848901518255600182019150602085019450602081019050610946565b868310156109885784890151610984601f891682610891565b8355505b6001600288020188555050505b505050505050565b600081905092915050565b60006109b38261055b565b6109bd818561099d565b93506109cd818560208601610577565b80840191505092915050565b60006109e582846109a8565b91508190509291505056fea26469706673582212205a87c73cf5f83bfdc91add6d03256d17a800beb57bc1bf0b990cd17ba6654c0e64736f6c63430008120033",
					"opcodes": "PUSH1 0x80 PUSH1 0x40 MSTORE CALLVALUE DUP1 ISZERO PUSH2 0x10 JUMPI PUSH1 0x0 DUP1 REVERT JUMPDEST POP PUSH2 0xA26 DUP1 PUSH2 0x20 PUSH1 0x0 CODECOPY PUSH1 0x0 RETURN INVALID PUSH1 0x80 PUSH1 0x40 MSTORE CALLVALUE DUP1 ISZERO PUSH2 0x10 JUMPI PUSH1 0x0 DUP1 REVERT JUMPDEST POP PUSH1 0x4 CALLDATASIZE LT PUSH2 0x57 JUMPI PUSH1 0x0 CALLDATALOAD PUSH1 0xE0 SHR DUP1 PUSH4 0xABC3FA9 EQ PUSH2 0x5C JUMPI DUP1 PUSH4 0x2EBCE631 EQ PUSH2 0x8C JUMPI DUP1 PUSH4 0x3489D874 EQ PUSH2 0xBD JUMPI DUP1 PUSH4 0x742D8823 EQ PUSH2 0xDB JUMPI DUP1 PUSH4 0xB9E95382 EQ PUSH2 0xF7 JUMPI JUMPDEST PUSH1 0x0 DUP1 REVERT JUMPDEST PUSH2 0x76 PUSH1 0x4 DUP1 CALLDATASIZE SUB DUP2 ADD SWAP1 PUSH2 0x71 SWAP2 SWAP1 PUSH2 0x475 JUMP JUMPDEST PUSH2 0x113 JUMP JUMPDEST PUSH1 0x40 MLOAD PUSH2 0x83 SWAP2 SWAP1 PUSH2 0x4DD JUMP JUMPDEST PUSH1 0x40 MLOAD DUP1 SWAP2 SUB SWAP1 RETURN JUMPDEST PUSH2 0xA6 PUSH1 0x4 DUP1 CALLDATASIZE SUB DUP2 ADD SWAP1 PUSH2 0xA1 SWAP2 SWAP1 PUSH2 0x52E JUMP JUMPDEST PUSH2 0x14C JUMP JUMPDEST PUSH1 0x40 MLOAD PUSH2 0xB4 SWAP3 SWAP2 SWAP1 PUSH2 0x5DA JUMP JUMPDEST PUSH1 0x40 MLOAD DUP1 SWAP2 SUB SWAP1 RETURN JUMPDEST PUSH2 0xC5 PUSH2 0x218 JUMP JUMPDEST PUSH1 0x40 MLOAD PUSH2 0xD2 SWAP2 SWAP1 PUSH2 0x4DD JUMP JUMPDEST PUSH1 0x40 MLOAD DUP1 SWAP2 SUB SWAP1 RETURN JUMPDEST PUSH2 0xF5 PUSH1 0x4 DUP1 CALLDATASIZE SUB DUP2 ADD SWAP1 PUSH2 0xF0 SWAP2 SWAP1 PUSH2 0x636 JUMP JUMPDEST PUSH2 0x231 JUMP JUMPDEST STOP JUMPDEST PUSH2 0x111 PUSH1 0x4 DUP1 CALLDATASIZE SUB DUP2 ADD SWAP1 PUSH2 0x10C SWAP2 SWAP1 PUSH2 0x692 JUMP JUMPDEST PUSH2 0x2F7 JUMP JUMPDEST STOP JUMPDEST PUSH1 0x2 DUP2 DUP1 MLOAD PUSH1 0x20 DUP2 ADD DUP3 ADD DUP1 MLOAD DUP5 DUP3 MSTORE PUSH1 0x20 DUP4 ADD PUSH1 0x20 DUP6 ADD KECCAK256 DUP2 DUP4 MSTORE DUP1 SWAP6 POP POP POP POP POP POP PUSH1 0x0 SWAP2 POP SLOAD SWAP1 PUSH2 0x100 EXP SWAP1 DIV PUSH4 0xFFFFFFFF AND DUP2 JUMP JUMPDEST PUSH1 0x1 DUP2 DUP2 SLOAD DUP2 LT PUSH2 0x15C JUMPI PUSH1 0x0 DUP1 REVERT JUMPDEST SWAP1 PUSH1 0x0 MSTORE PUSH1 0x20 PUSH1 0x0 KECCAK256 SWAP1 PUSH1 0x2 MUL ADD PUSH1 0x0 SWAP2 POP SWAP1 POP DUP1 PUSH1 0x0 ADD DUP1 SLOAD PUSH2 0x17F SWAP1 PUSH2 0x6EE JUMP JUMPDEST DUP1 PUSH1 0x1F ADD PUSH1 0x20 DUP1 SWAP2 DIV MUL PUSH1 0x20 ADD PUSH1 0x40 MLOAD SWAP1 DUP2 ADD PUSH1 0x40 MSTORE DUP1 SWAP3 SWAP2 SWAP1 DUP2 DUP2 MSTORE PUSH1 0x20 ADD DUP3 DUP1 SLOAD PUSH2 0x1AB SWAP1 PUSH2 0x6EE JUMP JUMPDEST DUP1 ISZERO PUSH2 0x1F8 JUMPI DUP1 PUSH1 0x1F LT PUSH2 0x1CD JUMPI PUSH2 0x100 DUP1 DUP4 SLOAD DIV MUL DUP4 MSTORE SWAP2 PUSH1 0x20 ADD SWAP2 PUSH2 0x1F8 JUMP JUMPDEST DUP3 ADD SWAP2 SWAP1 PUSH1 0x0 MSTORE PUSH1 0x20 PUSH1 0x0 KECCAK256 SWAP1 JUMPDEST DUP2 SLOAD DUP2 MSTORE SWAP1 PUSH1 0x1 ADD SWAP1 PUSH1 0x20 ADD DUP1 DUP4 GT PUSH2 0x1DB JUMPI DUP3 SWAP1 SUB PUSH1 0x1F AND DUP3 ADD SWAP2 JUMPDEST POP POP POP POP POP SWAP1 DUP1 PUSH1 0x1 ADD PUSH1 0x0 SWAP1 SLOAD SWAP1 PUSH2 0x100 EXP SWAP1 DIV PUSH4 0xFFFFFFFF AND SWAP1 POP DUP3 JUMP JUMPDEST PUSH1 0x0 DUP1 PUSH1 0x4 SWAP1 SLOAD SWAP1 PUSH2 0x100 EXP SWAP1 DIV PUSH4 0xFFFFFFFF AND SWAP1 POP SWAP1 JUMP JUMPDEST PUSH1 0x1 PUSH1 0x40 MLOAD DUP1 PUSH1 0x40 ADD PUSH1 0x40 MSTORE DUP1 DUP5 DUP2 MSTORE PUSH1 0x20 ADD DUP4 PUSH4 0xFFFFFFFF AND DUP2 MSTORE POP SWAP1 DUP1 PUSH1 0x1 DUP2 SLOAD ADD DUP1 DUP3 SSTORE DUP1 SWAP2 POP POP PUSH1 0x1 SWAP1 SUB SWAP1 PUSH1 0x0 MSTORE PUSH1 0x20 PUSH1 0x0 KECCAK256 SWAP1 PUSH1 0x2 MUL ADD PUSH1 0x0 SWAP1 SWAP2 SWAP1 SWAP2 SWAP1 SWAP2 POP PUSH1 0x0 DUP3 ADD MLOAD DUP2 PUSH1 0x0 ADD SWAP1 DUP2 PUSH2 0x28C SWAP2 SWAP1 PUSH2 0x8CB JUMP JUMPDEST POP PUSH1 0x20 DUP3 ADD MLOAD DUP2 PUSH1 0x1 ADD PUSH1 0x0 PUSH2 0x100 EXP DUP2 SLOAD DUP2 PUSH4 0xFFFFFFFF MUL NOT AND SWAP1 DUP4 PUSH4 0xFFFFFFFF AND MUL OR SWAP1 SSTORE POP POP POP DUP1 PUSH1 0x2 DUP4 PUSH1 0x40 MLOAD PUSH2 0x2C7 SWAP2 SWAP1 PUSH2 0x9D9 JUMP JUMPDEST SWAP1 DUP2 MSTORE PUSH1 0x20 ADD PUSH1 0x40 MLOAD DUP1 SWAP2 SUB SWAP1 KECCAK256 PUSH1 0x0 PUSH2 0x100 EXP DUP2 SLOAD DUP2 PUSH4 0xFFFFFFFF MUL NOT AND SWAP1 DUP4 PUSH4 0xFFFFFFFF AND MUL OR SWAP1 SSTORE POP POP POP JUMP JUMPDEST DUP1 PUSH1 0x0 PUSH1 0x4 PUSH2 0x100 EXP DUP2 SLOAD DUP2 PUSH4 0xFFFFFFFF MUL NOT AND SWAP1 DUP4 PUSH4 0xFFFFFFFF AND MUL OR SWAP1 SSTORE POP POP JUMP JUMPDEST PUSH1 0x0 PUSH1 0x40 MLOAD SWAP1 POP SWAP1 JUMP JUMPDEST PUSH1 0x0 DUP1 REVERT JUMPDEST PUSH1 0x0 DUP1 REVERT JUMPDEST PUSH1 0x0 DUP1 REVERT JUMPDEST PUSH1 0x0 DUP1 REVERT JUMPDEST PUSH1 0x0 PUSH1 0x1F NOT PUSH1 0x1F DUP4 ADD AND SWAP1 POP SWAP2 SWAP1 POP JUMP JUMPDEST PUSH32 0x4E487B7100000000000000000000000000000000000000000000000000000000 PUSH1 0x0 MSTORE PUSH1 0x41 PUSH1 0x4 MSTORE PUSH1 0x24 PUSH1 0x0 REVERT JUMPDEST PUSH2 0x382 DUP3 PUSH2 0x339 JUMP JUMPDEST DUP2 ADD DUP2 DUP2 LT PUSH8 0xFFFFFFFFFFFFFFFF DUP3 GT OR ISZERO PUSH2 0x3A1 JUMPI PUSH2 0x3A0 PUSH2 0x34A JUMP JUMPDEST JUMPDEST DUP1 PUSH1 0x40 MSTORE POP POP POP JUMP JUMPDEST PUSH1 0x0 PUSH2 0x3B4 PUSH2 0x31B JUMP JUMPDEST SWAP1 POP PUSH2 0x3C0 DUP3 DUP3 PUSH2 0x379 JUMP JUMPDEST SWAP2 SWAP1 POP JUMP JUMPDEST PUSH1 0x0 PUSH8 0xFFFFFFFFFFFFFFFF DUP3 GT ISZERO PUSH2 0x3E0 JUMPI PUSH2 0x3DF PUSH2 0x34A JUMP JUMPDEST JUMPDEST PUSH2 0x3E9 DUP3 PUSH2 0x339 JUMP JUMPDEST SWAP1 POP PUSH1 0x20 DUP2 ADD SWAP1 POP SWAP2 SWAP1 POP JUMP JUMPDEST DUP3 DUP2 DUP4 CALLDATACOPY PUSH1 0x0 DUP4 DUP4 ADD MSTORE POP POP POP JUMP JUMPDEST PUSH1 0x0 PUSH2 0x418 PUSH2 0x413 DUP5 PUSH2 0x3C5 JUMP JUMPDEST PUSH2 0x3AA JUMP JUMPDEST SWAP1 POP DUP3 DUP2 MSTORE PUSH1 0x20 DUP2 ADD DUP5 DUP5 DUP5 ADD GT ISZERO PUSH2 0x434 JUMPI PUSH2 0x433 PUSH2 0x334 JUMP JUMPDEST JUMPDEST PUSH2 0x43F DUP5 DUP3 DUP6 PUSH2 0x3F6 JUMP JUMPDEST POP SWAP4 SWAP3 POP POP POP JUMP JUMPDEST PUSH1 0x0 DUP3 PUSH1 0x1F DUP4 ADD SLT PUSH2 0x45C JUMPI PUSH2 0x45B PUSH2 0x32F JUMP JUMPDEST JUMPDEST DUP2 CALLDATALOAD PUSH2 0x46C DUP5 DUP3 PUSH1 0x20 DUP7 ADD PUSH2 0x405 JUMP JUMPDEST SWAP2 POP POP SWAP3 SWAP2 POP POP JUMP JUMPDEST PUSH1 0x0 PUSH1 0x20 DUP3 DUP5 SUB SLT ISZERO PUSH2 0x48B JUMPI PUSH2 0x48A PUSH2 0x325 JUMP JUMPDEST JUMPDEST PUSH1 0x0 DUP3 ADD CALLDATALOAD PUSH8 0xFFFFFFFFFFFFFFFF DUP2 GT ISZERO PUSH2 0x4A9 JUMPI PUSH2 0x4A8 PUSH2 0x32A JUMP JUMPDEST JUMPDEST PUSH2 0x4B5 DUP5 DUP3 DUP6 ADD PUSH2 0x447 JUMP JUMPDEST SWAP2 POP POP SWAP3 SWAP2 POP POP JUMP JUMPDEST PUSH1 0x0 PUSH4 0xFFFFFFFF DUP3 AND SWAP1 POP SWAP2 SWAP1 POP JUMP JUMPDEST PUSH2 0x4D7 DUP2 PUSH2 0x4BE JUMP JUMPDEST DUP3 MSTORE POP POP JUMP JUMPDEST PUSH1 0x0 PUSH1 0x20 DUP3 ADD SWAP1 POP PUSH2 0x4F2 PUSH1 0x0 DUP4 ADD DUP5 PUSH2 0x4CE JUMP JUMPDEST SWAP3 SWAP2 POP POP JUMP JUMPDEST PUSH1 0x0 DUP2 SWAP1 POP SWAP2 SWAP1 POP JUMP JUMPDEST PUSH2 0x50B DUP2 PUSH2 0x4F8 JUMP JUMPDEST DUP2 EQ PUSH2 0x516 JUMPI PUSH1 0x0 DUP1 REVERT JUMPDEST POP JUMP JUMPDEST PUSH1 0x0 DUP2 CALLDATALOAD SWAP1 POP PUSH2 0x528 DUP2 PUSH2 0x502 JUMP JUMPDEST SWAP3 SWAP2 POP POP JUMP JUMPDEST PUSH1 0x0 PUSH1 0x20 DUP3 DUP5 SUB SLT ISZERO PUSH2 0x544 JUMPI PUSH2 0x543 PUSH2 0x325 JUMP JUMPDEST JUMPDEST PUSH1 0x0 PUSH2 0x552 DUP5 DUP3 DUP6 ADD PUSH2 0x519 JUMP JUMPDEST SWAP2 POP POP SWAP3 SWAP2 POP POP JUMP JUMPDEST PUSH1 0x0 DUP2 MLOAD SWAP1 POP SWAP2 SWAP1 POP JUMP JUMPDEST PUSH1 0x0 DUP3 DUP3 MSTORE PUSH1 0x20 DUP3 ADD SWAP1 POP SWAP3 SWAP2 POP POP JUMP JUMPDEST PUSH1 0x0 JUMPDEST DUP4 DUP2 LT ISZERO PUSH2 0x595 JUMPI DUP1 DUP3 ADD MLOAD DUP2 DUP5 ADD MSTORE PUSH1 0x20 DUP2 ADD SWAP1 POP PUSH2 0x57A JUMP JUMPDEST PUSH1 0x0 DUP5 DUP5 ADD MSTORE POP POP POP POP JUMP JUMPDEST PUSH1 0x0 PUSH2 0x5AC DUP3 PUSH2 0x55B JUMP JUMPDEST PUSH2 0x5B6 DUP2 DUP6 PUSH2 0x566 JUMP JUMPDEST SWAP4 POP PUSH2 0x5C6 DUP2 DUP6 PUSH1 0x20 DUP7 ADD PUSH2 0x577 JUMP JUMPDEST PUSH2 0x5CF DUP2 PUSH2 0x339 JUMP JUMPDEST DUP5 ADD SWAP2 POP POP SWAP3 SWAP2 POP POP JUMP JUMPDEST PUSH1 0x0 PUSH1 0x40 DUP3 ADD SWAP1 POP DUP2 DUP2 SUB PUSH1 0x0 DUP4 ADD MSTORE PUSH2 0x5F4 DUP2 DUP6 PUSH2 0x5A1 JUMP JUMPDEST SWAP1 POP PUSH2 0x603 PUSH1 0x20 DUP4 ADD DUP5 PUSH2 0x4CE JUMP JUMPDEST SWAP4 SWAP3 POP POP POP JUMP JUMPDEST PUSH2 0x613 DUP2 PUSH2 0x4BE JUMP JUMPDEST DUP2 EQ PUSH2 0x61E JUMPI PUSH1 0x0 DUP1 REVERT JUMPDEST POP JUMP JUMPDEST PUSH1 0x0 DUP2 CALLDATALOAD SWAP1 POP PUSH2 0x630 DUP2 PUSH2 0x60A JUMP JUMPDEST SWAP3 SWAP2 POP POP JUMP JUMPDEST PUSH1 0x0 DUP1 PUSH1 0x40 DUP4 DUP6 SUB SLT ISZERO PUSH2 0x64D JUMPI PUSH2 0x64C PUSH2 0x325 JUMP JUMPDEST JUMPDEST PUSH1 0x0 DUP4 ADD CALLDATALOAD PUSH8 0xFFFFFFFFFFFFFFFF DUP2 GT ISZERO PUSH2 0x66B JUMPI PUSH2 0x66A PUSH2 0x32A JUMP JUMPDEST JUMPDEST PUSH2 0x677 DUP6 DUP3 DUP7 ADD PUSH2 0x447 JUMP JUMPDEST SWAP3 POP POP PUSH1 0x20 PUSH2 0x688 DUP6 DUP3 DUP7 ADD PUSH2 0x621 JUMP JUMPDEST SWAP2 POP POP SWAP3 POP SWAP3 SWAP1 POP JUMP JUMPDEST PUSH1 0x0 PUSH1 0x20 DUP3 DUP5 SUB SLT ISZERO PUSH2 0x6A8 JUMPI PUSH2 0x6A7 PUSH2 0x325 JUMP JUMPDEST JUMPDEST PUSH1 0x0 PUSH2 0x6B6 DUP5 DUP3 DUP6 ADD PUSH2 0x621 JUMP JUMPDEST SWAP2 POP POP SWAP3 SWAP2 POP POP JUMP JUMPDEST PUSH32 0x4E487B7100000000000000000000000000000000000000000000000000000000 PUSH1 0x0 MSTORE PUSH1 0x22 PUSH1 0x4 MSTORE PUSH1 0x24 PUSH1 0x0 REVERT JUMPDEST PUSH1 0x0 PUSH1 0x2 DUP3 DIV SWAP1 POP PUSH1 0x1 DUP3 AND DUP1 PUSH2 0x706 JUMPI PUSH1 0x7F DUP3 AND SWAP2 POP JUMPDEST PUSH1 0x20 DUP3 LT DUP2 SUB PUSH2 0x719 JUMPI PUSH2 0x718 PUSH2 0x6BF JUMP JUMPDEST JUMPDEST POP SWAP2 SWAP1 POP JUMP JUMPDEST PUSH1 0x0 DUP2 SWAP1 POP DUP2 PUSH1 0x0 MSTORE PUSH1 0x20 PUSH1 0x0 KECCAK256 SWAP1 POP SWAP2 SWAP1 POP JUMP JUMPDEST PUSH1 0x0 PUSH1 0x20 PUSH1 0x1F DUP4 ADD DIV SWAP1 POP SWAP2 SWAP1 POP JUMP JUMPDEST PUSH1 0x0 DUP3 DUP3 SHL SWAP1 POP SWAP3 SWAP2 POP POP JUMP JUMPDEST PUSH1 0x0 PUSH1 0x8 DUP4 MUL PUSH2 0x781 PUSH32 0xFFFFFFFFFFFFFFFFFFFFFFFFFFFFFFFFFFFFFFFFFFFFFFFFFFFFFFFFFFFFFFFF DUP3 PUSH2 0x744 JUMP JUMPDEST PUSH2 0x78B DUP7 DUP4 PUSH2 0x744 JUMP JUMPDEST SWAP6 POP DUP1 NOT DUP5 AND SWAP4 POP DUP1 DUP7 AND DUP5 OR SWAP3 POP POP POP SWAP4 SWAP3 POP POP POP JUMP JUMPDEST PUSH1 0x0 DUP2 SWAP1 POP SWAP2 SWAP1 POP JUMP JUMPDEST PUSH1 0x0 PUSH2 0x7C8 PUSH2 0x7C3 PUSH2 0x7BE DUP5 PUSH2 0x4F8 JUMP JUMPDEST PUSH2 0x7A3 JUMP JUMPDEST PUSH2 0x4F8 JUMP JUMPDEST SWAP1 POP SWAP2 SWAP1 POP JUMP JUMPDEST PUSH1 0x0 DUP2 SWAP1 POP SWAP2 SWAP1 POP JUMP JUMPDEST PUSH2 0x7E2 DUP4 PUSH2 0x7AD JUMP JUMPDEST PUSH2 0x7F6 PUSH2 0x7EE DUP3 PUSH2 0x7CF JUMP JUMPDEST DUP5 DUP5 SLOAD PUSH2 0x751 JUMP JUMPDEST DUP3 SSTORE POP POP POP POP JUMP JUMPDEST PUSH1 0x0 SWAP1 JUMP JUMPDEST PUSH2 0x80B PUSH2 0x7FE JUMP JUMPDEST PUSH2 0x816 DUP2 DUP5 DUP5 PUSH2 0x7D9 JUMP JUMPDEST POP POP POP JUMP JUMPDEST JUMPDEST DUP2 DUP2 LT ISZERO PUSH2 0x83A JUMPI PUSH2 0x82F PUSH1 0x0 DUP3 PUSH2 0x803 JUMP JUMPDEST PUSH1 0x1 DUP2 ADD SWAP1 POP PUSH2 0x81C JUMP JUMPDEST POP POP JUMP JUMPDEST PUSH1 0x1F DUP3 GT ISZERO PUSH2 0x87F JUMPI PUSH2 0x850 DUP2 PUSH2 0x71F JUMP JUMPDEST PUSH2 0x859 DUP5 PUSH2 0x734 JUMP JUMPDEST DUP2 ADD PUSH1 0x20 DUP6 LT ISZERO PUSH2 0x868 JUMPI DUP2 SWAP1 POP JUMPDEST PUSH2 0x87C PUSH2 0x874 DUP6 PUSH2 0x734 JUMP JUMPDEST DUP4 ADD DUP3 PUSH2 0x81B JUMP JUMPDEST POP POP JUMPDEST POP POP POP JUMP JUMPDEST PUSH1 0x0 DUP3 DUP3 SHR SWAP1 POP SWAP3 SWAP2 POP POP JUMP JUMPDEST PUSH1 0x0 PUSH2 0x8A2 PUSH1 0x0 NOT DUP5 PUSH1 0x8 MUL PUSH2 0x884 JUMP JUMPDEST NOT DUP1 DUP4 AND SWAP2 POP POP SWAP3 SWAP2 POP POP JUMP JUMPDEST PUSH1 0x0 PUSH2 0x8BB DUP4 DUP4 PUSH2 0x891 JUMP JUMPDEST SWAP2 POP DUP3 PUSH1 0x2 MUL DUP3 OR SWAP1 POP SWAP3 SWAP2 POP POP JUMP JUMPDEST PUSH2 0x8D4 DUP3 PUSH2 0x55B JUMP JUMPDEST PUSH8 0xFFFFFFFFFFFFFFFF DUP2 GT ISZERO PUSH2 0x8ED JUMPI PUSH2 0x8EC PUSH2 0x34A JUMP JUMPDEST JUMPDEST PUSH2 0x8F7 DUP3 SLOAD PUSH2 0x6EE JUMP JUMPDEST PUSH2 0x902 DUP3 DUP3 DUP6 PUSH2 0x83E JUMP JUMPDEST PUSH1 0x0 PUSH1 0x20 SWAP1 POP PUSH1 0x1F DUP4 GT PUSH1 0x1 DUP2 EQ PUSH2 0x935 JUMPI PUSH1 0x0 DUP5 ISZERO PUSH2 0x923 JUMPI DUP3 DUP8 ADD MLOAD SWAP1 POP JUMPDEST PUSH2 0x92D DUP6 DUP3 PUSH2 0x8AF JUMP JUMPDEST DUP7 SSTORE POP PUSH2 0x995 JUMP JUMPDEST PUSH1 0x1F NOT DUP5 AND PUSH2 0x943 DUP7 PUSH2 0x71F JUMP JUMPDEST PUSH1 0x0 JUMPDEST DUP3 DUP2 LT ISZERO PUSH2 0x96B JUMPI DUP5 DUP10 ADD MLOAD DUP3 SSTORE PUSH1 0x1 DUP3 ADD SWAP2 POP PUSH1 0x20 DUP6 ADD SWAP5 POP PUSH1 0x20 DUP2 ADD SWAP1 POP PUSH2 0x946 JUMP JUMPDEST DUP7 DUP4 LT ISZERO PUSH2 0x988 JUMPI DUP5 DUP10 ADD MLOAD PUSH2 0x984 PUSH1 0x1F DUP10 AND DUP3 PUSH2 0x891 JUMP JUMPDEST DUP4 SSTORE POP JUMPDEST PUSH1 0x1 PUSH1 0x2 DUP9 MUL ADD DUP9 SSTORE POP POP POP JUMPDEST POP POP POP POP POP POP JUMP JUMPDEST PUSH1 0x0 DUP2 SWAP1 POP SWAP3 SWAP2 POP POP JUMP JUMPDEST PUSH1 0x0 PUSH2 0x9B3 DUP3 PUSH2 0x55B JUMP JUMPDEST PUSH2 0x9BD DUP2 DUP6 PUSH2 0x99D JUMP JUMPDEST SWAP4 POP PUSH2 0x9CD DUP2 DUP6 PUSH1 0x20 DUP7 ADD PUSH2 0x577 JUMP JUMPDEST DUP1 DUP5 ADD SWAP2 POP POP SWAP3 SWAP2 POP POP JUMP JUMPDEST PUSH1 0x0 PUSH2 0x9E5 DUP3 DUP5 PUSH2 0x9A8 JUMP JUMPDEST SWAP2 POP DUP2 SWAP1 POP SWAP3 SWAP2 POP POP JUMP INVALID LOG2 PUSH5 0x6970667358 0x22 SLT KECCAK256 GAS DUP8 0xC7 EXTCODECOPY CREATE2 0xF8 EXTCODESIZE REVERT 0xC9 BYTE 0xDD PUSH14 0x3256D17A800BEB57BC1BF0B990C 0xD1 PUSH28 0xA6654C0E64736F6C6343000812003300000000000000000000000000 "
				},
				"gasEstimates": {
					"creation": {
						"codeDepositCost": "519600",
						"executionCost": "556",
						"totalCost": "520156"
					},
					"external": {
						"AddPeople(string,uint32)": "infinite",
						"findNumber(string)": "infinite",
						"listOfPeople(uint256)": "infinite",
						"store(uint32)": "24795",
						"watch()": "2551"
					}
				},
				"methodIdentifiers": {
					"AddPeople(string,uint32)": "742d8823",
					"findNumber(string)": "0abc3fa9",
					"listOfPeople(uint256)": "2ebce631",
					"store(uint32)": "b9e95382",
					"watch()": "3489d874"
				}
			},
			"storageLayout": {
				"storage": [
					{
						"astId": 3,
						"contract": "SimpleStorage.sol:SimpleStorage",
						"label": "favoNumber",
						"offset": 0,
						"slot": "0",
						"type": "t_uint32"
					},
					{
						"astId": 5,
						"contract": "SimpleStorage.sol:SimpleStorage",
						"label": "grinta",
						"offset": 4,
						"slot": "0",
						"type": "t_uint32"
					},
					{
						"astId": 14,
						"contract": "SimpleStorage.sol:SimpleStorage",
						"label": "listOfPeople",
						"offset": 0,
						"slot": "1",
						"type": "t_array(t_struct(Person)10_storage)dyn_storage"
					},
					{
						"astId": 18,
						"contract": "SimpleStorage.sol:SimpleStorage",
						"label": "findNumber",
						"offset": 0,
						"slot": "2",
						"type": "t_mapping(t_string_memory_ptr,t_uint32)"
					}
				],
				"types": {
					"t_array(t_struct(Person)10_storage)dyn_storage": {
						"base": "t_struct(Person)10_storage",
						"encoding": "dynamic_array",
						"label": "struct SimpleStorage.Person[]",
						"numberOfBytes": "32"
					},
					"t_mapping(t_string_memory_ptr,t_uint32)": {
						"encoding": "mapping",
						"key": "t_string_memory_ptr",
						"label": "mapping(string => uint32)",
						"numberOfBytes": "32",
						"value": "t_uint32"
					},
					"t_string_memory_ptr": {
						"encoding": "bytes",
						"label": "string",
						"numberOfBytes": "32"
					},
					"t_string_storage": {
						"encoding": "bytes",
						"label": "string",
						"numberOfBytes": "32"
					},
					"t_struct(Person)10_storage": {
						"encoding": "inplace",
						"label": "struct SimpleStorage.Person",
						"members": [
							{
								"astId": 7,
								"contract": "SimpleStorage.sol:SimpleStorage",
								"label": "name",
								"offset": 0,
								"slot": "0",
								"type": "t_string_storage"
							},
							{
								"astId": 9,
								"contract": "SimpleStorage.sol:SimpleStorage",
								"label": "favoNumber",
								"offset": 0,
								"slot": "1",
								"type": "t_uint32"
							}
						],
						"numberOfBytes": "64"
					},
					"t_uint32": {
						"encoding": "inplace",
						"label": "uint32",
						"numberOfBytes": "4"
					}
				}
			},
			"userdoc": {
				"kind": "user",
				"methods": {},
				"version": 1
			}
		}
	}
}